:1000000086EF2DF0FFFFFFFF0CC068F60BC067F610
:100010000AC066F600C065F6E9CF1EF4EACF1FF409
:10002000E1CF20F4E2CF21F4F29EF2A22BD0160E03
:10003000155C02E2152A02D0010E156E270E0C6E19
:10004000FF0E0B6EFF0E0A6E0C2E01D007D00B2E8A
:1000500001D003D00A2EFED7FAD7F6D73F0E0B6E8B
:10006000FF0E0A6E0B2E01D003D00A2EFED7FAD750
:10007000850E0A6E0A2EFED70000010E166E010EC6
:10008000176EF292F2A403D0D66AD76AF294800E69
:10009000F2121EC4E9FF1FC4EAFF20C4E1FF21C41D
:1000A000E2FF68C60CF067C60BF066C60AF065C6CC
:1000B00000F0110006014B6B58EC2BF024EC2CF0F7
:1000C000080E046E000E056E57EC27F008C000F015
:1000D00009C001F000C04AF401C04BF424EC2CF03C
:1000E000080E046E000E056E57EC27F008C000F0F5
:1000F00009C001F000C048F401C049F424EC2CF020
:10010000080E046E000E056E57EC27F008C000F0D4
:1001100009C001F000C04CF401C04DF40401566B5D
:10012000576B800E5719006E800E005C02E1080EBE
:10013000565D48E256C400F057C401F0060E046E46
:10014000000E056E7CEC2EF05B0E0024E16E040EBA
:100150000120E26E48C4E6FF49C4E6FF56C400F041
:1001600057C401F0060E046E000E056E7CEC2EF0F6
:100170005B0E0026040E0122020E0024E16E000E2A
:100180000120E26E4AC4E6FF4BC4E6FF56C400F00D
:1001900057C401F0060E046E000E056E7CEC2EF0C6
:1001A0005B0E0026040E0122040E0024E16E000EF8
:1001B0000120E26E4CC4E6FF4DC4E6FF0401564B3D
:1001C000572BAFD70401010E4E6F000E4F6F010E7B
:1001D000506F000E516F010E526F000E536F43515E
:1001E0004411D8B48DEF06F0586B596B5A6B24EC60
:1001F0002CF0030E046E000E056E57EC27F008C0BD
:1002000000F009C001F0000E011802E1000E001814
:100210005DE124EC2CF0030E046E000E056E57EC2D
:1002200027F008C000F009C001F000C054F401C07C
:1002300055F4000E011802E1000E001813E124EC41
:100240002CF0030E046E000E056E57EC27F008C06C
:1002500000F009C001F0010E005C04014E6F000EB9
:1002600001584F6F0401000E551902E1010E541997
:1002700013E124EC2CF0030E046E000E056E57EC17
:1002800027F008C000F009C001F0010E005C040175
:10029000506F000E0158516F0401000E551902E114
:1002A000020E541913E124EC2CF0030E046E000E20
:1002B000056E57EC27F008C000F009C001F0010EF0
:1002C000005C0401526F000E0158536F0401FF0ED1
:1002D0004F1902E1FF0E4E1923E1000E491902E108
:1002E000000E48191DE1010E586F24EC2CF0030E8E
:1002F000046E000E056E57EC27F008C000F009C030
:1003000001F0000E011802E1010E001806E1010ED5
:1003100004014E6F000E4F6F03D004014E6B4F6B04
:100320000401FF0E511902E1FF0E501923E1000EE6
:100330004B1902E1000E4A191DE1010E596F24EC20
:100340002CF0030E046E000E056E57EC27F008C06B
:1003500000F009C001F0000E011802E1010E0018C2
:1003600006E1010E0401506F000E516F03D004012D
:10037000506B516B0401FF0E531902E1FF0E52192D
:1003800023E1000E4D1902E1000E4C191DE1010E92
:100390005A6F24EC2CF0030E046E000E056E57EC21
:1003A00027F008C000F009C001F0000E011802E1BA
:1003B000010E001806E1010E0401526F000E536F8A
:1003C00003D00401526B536B0401000E4F1902E17C
:1003D000010E4E1923E1000E491902E1070E4819DA
:1003E0001DE1010E586F24EC2CF0030E046E000E7C
:1003F000056E57EC27F008C000F009C001F0000EB0
:10040000011802E1010E001806E1FF0E04014E6F13
:10041000FF0E4F6F03D004014E6B4F6B0401000EB3
:10042000511902E1010E501923E1000E4B1902E1AE
:10043000070E4A191DE1010E596F24EC2CF0030E32
:10044000046E000E056E57EC27F008C000F009C0DE
:1004500001F0000E011802E1010E001806E1FF0E86
:100460000401506FFF0E516F03D00401506B516BAC
:100470000401000E531902E1010E521923E1000E8E
:100480004D1902E1070E4C191DE1010E5A6F24ECC3
:100490002CF0030E046E000E056E57EC27F008C01A
:1004A00000F009C001F0000E011802E1010E001871
:1004B00006E1FF0E0401526FFF0E536F03D00401DB
:1004C000526B536B0401010E4611D8B470D15853CE
:1004D000D8B477D0000E511902E1000E501935E161
:1004E000000E4B1902E1070E4A1905E1FF0E506F8D
:1004F000FF0E516F2AD00401000E4B1902E1000ECD
:100500004A1905E1010E506F000E516F1ED0040113
:1005100024EC2CF0020E046E000E056E57EC27F052
:1005200008C000F009C001F0000E011802E1000E41
:10053000001806E1FF0E0401506FFF0E516F05D049
:100540000401010E506F000E516F0401000E53198B
:1005500002E1000E521935E1000E4D1902E1070EBD
:100560004C1905E1FF0E526FFF0E536F2AD00401A4
:10057000000E4D1902E1000E4C1905E1010E526FFB
:10058000000E536F1ED0040124EC2CF0020E046EFA
:10059000000E056E57EC27F008C000F009C001F00E
:1005A000000E011802E1000E001806E1FF0E040122
:1005B000526FFF0E536F05D00401010E526F000EF3
:1005C000536F04015953D8B477D0000E4F1902E18C
:1005D000000E4E1935E1000E491902E1070E4819C7
:1005E00005E1FF0E4E6FFF0E4F6F2AD00401000E83
:1005F000491902E1000E481905E1010E4E6F000E87
:100600004F6F1ED0040124EC2CF0020E046E000E7D
:10061000056E57EC27F008C000F009C001F0000E8D
:10062000011802E1000E001806E1FF0E04014E6FF2
:10063000FF0E4F6F05D00401010E4E6F000E4F6F7D
:100640000401000E531902E1000E521935E1000EAB
:100650004D1902E1030E4C1905E1FF0E526FFF0E1A
:10066000536F2AD00401000E4D1902E1000E4C19FF
:1006700005E1010E526F000E536F1ED0040124ECF1
:100680002CF0020E046E000E056E57EC27F008C029
:1006900000F009C001F0000E011802E1000E001880
:1006A00006E1FF0E0401526FFF0E536F05D00401E7
:1006B000010E526F000E536F04015A53D8B477D015
:1006C000000E511902E1000E501935E1000E4B19D0
:1006D00002E1070E4A1905E1FF0E506FFF0E516F40
:1006E0002AD00401000E4B1902E1000E4A1905E15F
:1006F000010E506F000E516F1ED0040124EC2CF03F
:10070000020E046E000E056E57EC27F008C000F0D4
:1007100009C001F0000E011802E1000E001806E108
:10072000FF0E0401506FFF0E516F05D00401010E42
:10073000506F000E516F0401000E4F1902E1000EC0
:100740004E1935E1000E491902E1070E481905E17D
:10075000FF0E4E6FFF0E4F6F2AD00401000E491995
:1007600002E1000E481905E1010E4E6F000E4F6FB9
:100770001ED0040124EC2CF0020E046E000E056E57
:1007800057EC27F008C000F009C001F0000E011876
:1007900002E1000E001806E1FF0E04014E6FFF0E8D
:1007A0004F6F05D00401010E4E6F000E4F6F040114
:1007B000020E4611D8B4C9D0000E491902E1000E4C
:1007C00048190DE1000E4B1902E1000E4A1907E12C
:1007D000000E4D1902E1000E4C19D8B48AD0040164
:1007E000000E491902E1000E48190DE1000E4B19E7
:1007F00002E1000E4A1907E1000E4D1902E1070E51
:100800004C19D8B476D00401000E491902E1000E4B
:1008100048190DE1000E4B1902E1070E4A1907E1D4
:10082000000E4D1902E1000E4C19D8B462D004013B
:10083000000E491902E1000E48190DE1000E4B1996
:1008400002E1070E4A1907E1000E4D1902E1070EF9
:100850004C19D8B44ED00401000E491902E1070E1C
:1008600048190CE1000E4B1902E1000E4A1906E18D
:10087000000E4D1902E1000E4C193BE00401000E80
:10088000491902E1070E48190CE1000E4B1902E16B
:10089000000E4A1906E1000E4D1902E1070E4C192F
:1008A00028E00401000E491902E1070E48190CE185
:1008B000000E4B1902E1070E4A1906E1000E4D1910
:1008C00002E1000E4C1915E00401000E491902E185
:1008D000070E48190CE1000E4B1902E1070E4A19E8
:1008E00006E1000E4D1902E1070E4C1902E0040169
:1008F0002CD0040124EC2CF0030E046E000E056EC7
:1009000057EC27F008C000F009C001F000C054F413
:1009100001C055F4000E011802E1000E001803E1B9
:1009200004014E6B4F6B0401000E551902E1010EDC
:10093000541902E1506B516B0401000E551902E18C
:10094000020E541902E1526B536B0401000E491957
:1009500002E1000E48190AE1FF0E4F1902E1FF0EF5
:100960004E1904E1010E4E6F000E4F6F0401000E90
:100970004B1902E1000E4A190AE1FF0E511902E17A
:10098000FF0E501904E1010E506F000E516F04016B
:10099000000E4D1902E1000E4C190AE1FF0E531929
:1009A00002E1FF0E521904E1010E526F000E536F67
:1009B0000401000E491902E1070E48190AE1000E70
:1009C0004F1902E1010E4E1904E1FF0E4E6FFF0EAA
:1009D0004F6F0401000E4B1902E1070E4A190AE19C
:1009E000000E511902E1010E501904E1FF0E506F83
:1009F000FF0E516F0401000E4D1902E1070E4C1954
:100A00000AE1000E531902E1010E521904E1FF0E32
:100A1000526FFF0E536F04014E5148274F51492327
:100A200050514A2751514B2352514C2753514D237A
:100A30004751010A1FE14CC44BF64AC44CF648C466
:100A40004DF6A2EC2CF0010E06013D6F000E3E6F3C
:100A500045C43FF6000E406F33EC1AF04CC44BF621
:100A60004AC44CF648C44DF618EC2DF0165202E07C
:100A7000166A120004014751020A17E14CC44BF6F2
:100A80004AC44CF648C44DF6A2EC2CF0010E060107
:100A90003D6F000E3E6F45C43FF6000E406F33ECD5
:100AA0001AF0165202E0166A120004014751030AB6
:100AB000D8A42CD1070E566F000E576F800E571911
:100AC000006E800E005C02E1000E565DD8A097D04B
:100AD00056C400F057C401F0060E046E000E056EF9
:100AE0007CEC2EF05B0E0024E16E040E0120E26E21
:100AF000010E0401565D006E000E5759016E060E80
:100B0000046E000E056E7CEC2EF05B0E0024E96E88
:100B1000040E0120EA6EEECF00F0EECF01F000C02F
:100B2000E6FF01C0E6FF56C400F057C401F0060E10
:100B3000046E000E056E7CEC2EF05B0E0026040E9B
:100B40000122020E0024E16E000E0120E26E010E71
:100B50000401565D006E000E5759016E060E046EBC
:100B6000000E056E7CEC2EF05B0E0026040E0122BA
:100B7000020E0024E96E000E0120EA6EEECF00F0B6
:100B8000EECF01F000C0E6FF01C0E6FF56C400F062
:100B900057C401F0060E046E000E056E7CEC2EF0BC
:100BA0005B0E0026040E0122040E0024E16E000EEE
:100BB0000120E26E010E0401565D006E000E5759D1
:100BC000016E060E046E000E056E7CEC2EF05B0EC0
:100BD0000026040E0122040E0024E96E000E0120FE
:100BE000EA6EEECF00F0EECF01F000C0E6FF01C0EC
:100BF000E6FF010E0401565F000E575B5FD704014C
:100C000048C45BF449C45CF44AC45DF44BC45EF46C
:100C10004CC45FF44DC460F4566B576B800E57198B
:100C2000006E800E005C02E1080E565D2AE256C49A
:100C300000F057C401F0060E046E000E056E7CEC49
:100C40002EF05B0E0026040E0122040E0024E96E35
:100C5000000E0120EA6EEECF4BF6020E0024E96E84
:100C6000000E0120EA6EEECF4CF600C0E9FF01C095
:100C7000EAFFEECF4DF6A2EC2CF00401564B572BB9
:100C8000CDD7010E06013D6F000E3E6F45C43FF605
:100C9000000E406F33EC1AF0165202E0166A120092
:100CA0000401566B576B800E5719006E800E005C66
:100CB00002E1080E565D2AE256C400F057C401F066
:100CC000060E046E000E056E7CEC2EF05B0E002608
:100CD000040E0122040E0024E96E000E0120EA6ECB
:100CE000EECF4BF6020E0024E96E000E0120EA6EF4
:100CF000EECF4CF600C0E9FF01C0EAFFEECF4DF6A3
:100D000018EC2DF00401564B572BCDD70401010EE2
:100D1000435F000E445BEFEF00F01200480E040149
:100D2000236F450E246F4C0E256F4C0E266F4F0E11
:100D3000276F200E286F570E296F4F0E2A6F520E05
:100D40002B6F4C0E2C6F440E2D6F2E6B480E2F6F99
:100D5000450E306F4C0E316F4C0E326F4F0E336FAD
:100D6000200E346F570E356F4F0E366F520E376FA1
:100D70004C0E386F440E396F3A6B450E3B6F520E76
:100D80003C6F520E3D6F4F0E3E6F520E3F6F406BE9
:100D900023D27AD2010E416F040E415D0BE241C4B1
:100DA00043F4030E446F000E456F1EEC28F004015F
:100DB000412BF2D7640E06014B6F000E4C6FC8EC4E
:100DC0002EF062D2F40E0401436F010E446FDDEC8D
:100DD00024F05AD28DEC1DF0040E0401436F000E76
:100DE000446F456B466B24EC29F0040E0401436FFD
:100DF000000E446F010E456F000E466F24EC29F083
:100E0000040E0401436F000E446F456B466B24ECE7
:100E100029F0040E0401436F000E446F010E456F6C
:100E2000000E466F24EC29F0040E0401436F000EFF
:100E3000446F456B466B24EC29F0040E0401436FAC
:100E4000000E446F010E456F000E466F24EC29F032
:100E50001BD2320E0401436F000E446F020E456F29
:100E6000010E466F050E476F58EC10F0320E04016C
:100E7000436F000E446F030E456F010E466F050E63
:100E8000476F58EC10F000D2230E0401436F040E9C
:100E9000446F43EC1EF0F8D1C80E0401436F000EFE
:100EA000446F040E456F010E466F010E476F5AECFA
:100EB00000F0F40E0401436F010E446F020E456F03
:100EC000010E466F020E476F5AEC00F02C0E040123
:100ED000436F010E446F030E456F010E466F030E04
:100EE000476F5AEC00F0D0D1020E0401436F446BFF
:100EF000010E456F020E466F2DEC17F0020E040135
:100F0000436F010E446F010E456F020E466F2DECCC
:100F100017F0030E0401436F446B010E456F020E80
:100F2000466F2DEC17F0030E0401436F010E446F62
:100F3000010E456F020E466F2DEC17F0A5D1F1ECB6
:100F400026F0A2D1020E0401436F000E446F456BE0
:100F5000466BC80E476F000E486F040E496F000EB7
:100F60004A6F08EC16F0030E0401436F000E446F45
:100F7000010E456F000E466FC80E476F000E486F9A
:100F8000040E496F000E4A6F08EC16F07DD1E80E92
:100F90000401436F030E446F030E456F000E466F4E
:100FA00060EC24F071D1020E0401436F030E446F14
:100FB000000E456F466B45EC09F0070E0401416FCA
:100FC000090E415D0DE2050E436F030E446F000EE6
:100FD000456F41C446F445EC09F00401412BF0D7BC
:100FE00053D1060E436F000E446F2F0E456F040E53
:100FF000466FF5EC1BF048D1030E0401436F020E5F
:10100000446F320E456F000E466F476B1DEC12F0B9
:10101000030E0401436F020E446F320E456F000E43
:10102000466F010E476F1DEC12F0020E0401436F74
:10103000020E446F320E456F000E466F476B1DEC7B
:1010400012F0020E0401436F020E446F320E456F20
:10105000000E466F010E476F1DEC12F015D10A0EFF
:101060000401436F000E446F1CEC1BF00DD1050E04
:101070000401436F000E446F0C0E456F020E466F65
:10108000000E476FC4EC1CF0050E0401436F000E08
:10109000446F0C0E456F020E466F000E476FC4EC96
:1010A0001CF0050E0401436F000E446F0C0E456FDB
:1010B000020E466F000E476FC4EC1CF0050E0401D3
:1010C000436F000E446F0C0E456F020E466F000E0C
:1010D000476FC4EC1CF0050E0401436F000E446F13
:1010E0000C0E456F020E466F000E476FC4EC1CF0ED
:1010F000050E0401436F000E446F0C0E456F020E87
:10110000466F000E476FC4EC1CF0C80E0401436F1D
:10111000000E446F040E456F000E466FBCEC27F0C6
:10112000C80E0401436F000E446F040E456F000E9D
:10113000466FD5EC23F0A8D0A7D0030E0401436F6F
:10114000DDEC0BF0A1D0400E0401436F000E446FA4
:10115000040E456F000E466F29EC2AF095D004016D
:10116000426B0E0E425D0FE2050E436F000E446FA0
:1011700042C445F4010E466F000E476FC4EC1CF0EC
:101180000401422BEED780D0C80E436F000E446F8F
:10119000040E456F000E466FBCEC27F0C80E04012C
:1011A000436F000E446F040E456F000E466FD5EC82
:1011B00023F06AD0010E0401436F030E446F000E4A
:1011C000456F1EEC28F060D03B0E0401436F040E07
:1011D000446F43EC1EF058D004012251000AD8B4E9
:1011E000D8D52251010AD8B4D5D52251020AD8B493
:1011F000E9D52251030AD8B4EDD52251040AD8B456
:1012000028D62251050AD8B43FD62251060AD8B4AE
:1012100043D62251070AD8B467D62251080AD8B457
:101220008ED62251090AD8B48DD622510A0AD8B4D2
:10123000AED622510B0AD8B4B6D622510C0AD8B475
:10124000D0D622510D0AD8B4D7D622510E0AD8B41E
:1012500006D722510F0AD8B40AD72251100AD8B49F
:101260006BD72251110AD8B468D72251120AD8B4C8
:101270006AD72251130AD8B472D72251140A84E0D3
:101280002251150A97E0A0D71200000E0401476F03
:10129000010E486F020E496F030E4A6F040E4B6F2A
:1012A000050E4C6F060E4D6F070E4E6F010E4F6F01
:1012B000010E506F020E516F030E526F040E536FEA
:1012C000050E546F060E556F060E566F020E576FC1
:1012D000020E586F030E596F030E5A6F040E5B6FA8
:1012E000040E5C6F050E5D6F050E5E6F030E5F6F83
:1012F000030E606F030E616F030E626F040E636F67
:10130000040E646F040E656F040E666F06014B6B6E
:1013100058EC2BF00401696B4351695DD8B04CD295
:101320006C6B6B6B6D6B6A6B070E6A5DD8B085D0AA
:101330006C5309E16D2B6D51040A03E1010E6C6FD2
:101340006D6BA4EF09F06D2B0401676B080E675DF0
:101350005EE26B6B686B080E685D57E246C42FF661
:10136000675107080601306F68C431F652EC2DF062
:10137000005246E004016C531EE167510708060164
:101380004B6F080E04016D03F3CF00F0F4CF01F0B2
:101390006B510026D8B0012A470E0024E96E040ED6
:1013A0000120EA6EEECF4CF668C44DF6A2EC2CF0AC
:1013B00004016B2B24D06751070806014B6F080E00
:1013C00004016D03F3CF00F0F4CF01F000501F08CB
:1013D000006E01C001F0E86A01566B51005E000E1C
:1013E000015A470E0024E96E040E0120EA6EEECF8A
:1013F0004CF668C44DF6A2EC2CF004016B2B02D025
:1014000004016B2B0401682BA6D7672B9FD7010E15
:1014100006013D6F000E3E6F44C43FF645C440F6E2
:1014200033EC1AF0165202E0166A120006014B6BFA
:1014300058EC2BF004016A2B77D76D6B6C6B6B6BE0
:101440006A6B070E6A5DD8B08DD06C5309E16D2BC5
:101450006D51040A03E1010E6C6F6D6B31EF0AF000
:101460006D2B0401676B080E675D66E26B6B686B42
:10147000080E685D5FE246C42FF667510708060153
:10148000306F68C431F652EC2DF000524EE004018A
:101490006C5322E16751070806014B6F68C44CF694
:1014A000080E04016D03F3CF00F0F4CF01F06B518F
:1014B0000026D8B0012A470E0024E96E040E012050
:1014C000EA6EEECF00F00050070806014D6FA2EC67
:1014D0002CF004016B2B28D06751070806014B6FD5
:1014E00068C44CF6080E04016D03F3CF00F0F4CF8E
:1014F00001F000501F08006E01C001F0E86A0156BB
:101500006B51005E000E015A470E0024E96E040E76
:101510000120EA6EEECF00F00050070806014D6F83
:10152000A2EC2CF004016B2B02D004016B2B040104
:10153000682B9ED7672B97D7010E06013D6F000ED3
:101540003E6F44C43FF645C440F633EC1AF01652E1
:1015500002E0166A120006014B6B58EC2BF00401F6
:101560006A2B6FD76C6B6B6B6D6B6A6B070E6A5D6A
:10157000D8B088D06C5309E16D2B6D51040A03E19A
:10158000010E6C6F6D6BC6EF0AF06D2B0401676B7B
:10159000080E675D61E26B6B686B080E685D5AE26E
:1015A00046C42FF6675107080601306F04016851E1
:1015B00007080601316F52EC2DF0005246E004019D
:1015C0006C531EE16751070806014B6F080E0401BA
:1015D0006D03F3CF00F0F4CF01F06B510026D8B0CB
:1015E000012A470E0024E96E040E0120EA6EEECFB8
:1015F0004CF668C44DF6A2EC2CF004016B2B24D001
:101600006751070806014B6F080E04016D03F3CF05
:1016100000F0F4CF01F000501F08006E01C001F08F
:10162000E86A01566B51005E000E015A470E002415
:10163000E96E040E0120EA6EEECF4CF668C44DF65A
:10164000A2EC2CF004016B2B02D004016B2B0401E3
:10165000682BA3D7672B9CD7010E06013D6F000EA8
:101660003E6F44C43FF645C440F633EC1AF01652C0
:1016700002E0166A120006014B6B58EC2BF00401D5
:101680006A2B74D76D6B6C6B6B6B6A6B070E6A5D44
:10169000D8B090D06C5309E16D2B6D51040A03E171
:1016A000010E6C6F6D6B56EF0BF06D2B0401676BC9
:1016B000080E675D69E26B6B686B080E685D62E23D
:1016C00046C42FF6675107080601306F04016851C0
:1016D00007080601316F52EC2DF000524EE0040174
:1016E0006C5322E16751070806014B6F68C44CF642
:1016F000080E04016D03F3CF00F0F4CF01F06B513D
:101700000026D8B0012A470E0024E96E040E0120FD
:10171000EA6EEECF00F00050070806014D6FA2EC14
:101720002CF004016B2B28D06751070806014B6F82
:1017300068C44CF6080E04016D03F3CF00F0F4CF3B
:1017400001F000501F08006E01C001F0E86A015668
:101750006B51005E000E015A470E0024E96E040E24
:101760000120EA6EEECF00F00050070806014D6F31
:10177000A2EC2CF004016B2B02D004016B2B0401B2
:10178000682B9BD7672B94D7010E06013D6F000E87
:101790003E6F44C43FF645C440F633EC1AF016528F
:1017A00002E0166A120006014B6B58EC2BF00401A4
:1017B0006A2B6CD7692BB0D51200500E0401476F0D
:1017C00006014B6B58EC2BF00401446B4351445D14
:1017D000D8B059D2165202E0166A120024EC2CF04E
:1017E000040E046E000E056E57EC27F008C000F0E2
:1017F00009C001F0020E00240401486F24EC2CF013
:10180000040E046E000E056E57EC27F008C000F0C1
:1018100009C001F0020E00240401496F010E4A6F55
:10182000070E466F4A51465D3FE346C44BF649C436
:101830004CF648C44DF6A2EC2CF006012F6B306B31
:10184000316B326B1FEC2EF0000E046E000E056E35
:10185000200E066E820E076EB5EC22F000C004F07A
:1018600001C005F002C006F003C007F0000E006ED4
:10187000000E016E200E026E810E036EA2EC2FF0A0
:101880004EEC25F000C03FF601C040F6010E060107
:101890003D6F000E3E6F33EC1AF006014B6B58ECB7
:1018A0002BF004014607BED7456B4751455DD8B0C4
:1018B000BDD045C400F0000E016E060E046E000E91
:1018C000056E7CEC2EF04B0E0024E16E040E012020
:1018D000E26E48C4E6FF45C400F0000E016E060E3D
:1018E000046E000E056E7CEC2EF04B0E0026040EEE
:1018F0000122010E0024E16E000E0120E26E49C4B7
:10190000E6FF45C400F0000E016E060E046E000EE8
:10191000056E7CEC2EF04B0E0026040E0122020E0A
:101920000024E16E000E0120E26E4AC4E6FF45C4C9
:1019300000F0000E016E060E046E000E056E7CECCB
:101940002EF04B0E0026040E0122030E0024060189
:101950002B6F000E01202C6F24EC2CF0030E046E74
:10196000000E056E57EC27F008C000F009C001F02A
:1019700000500108006E2BC6E1FF2CC6E2FF00C03C
:10198000E6FF45C400F0000E016E060E046E000E68
:10199000056E7CEC2EF04B0E0026040E0122040E88
:1019A000002406012B6F000E01202C6F24EC2CF07C
:1019B000030E046E000E056E57EC27F008C000F011
:1019C00009C001F000500108006E2BC6E1FF2CC6D3
:1019D000E2FF00C0E6FF45C400F0000E016E060EF7
:1019E000046E000E056E7CEC2EF04B0E0026040EED
:1019F0000122050E002406012B6F000E01202C6F22
:101A000024EC2CF0020E046E000E056E57EC27F04D
:101A100008C000F009C001F0002A2BC6E1FF2CC667
:101A2000E2FF00C0E6FF0401452B3FD7466B050EE1
:101A3000465DD8B005D1456B4751455DD8B0EED075
:101A400045C400F0000E016E060E046E000E056E19
:101A50007CEC2EF04B0E0024066E040E0120076E67
:101A6000030E0624E96E000E0720EA6EEECF04F0A6
:101A700006C0E9FF07C0EAFFEECF00F004500026E1
:101A800006C0E1FF07C0E2FF00C0E6FF45C400F06A
:101A9000000E016E060E046E000E056E7CEC2EF03C
:101AA0004B0E0026040E0122010E0024066E000ECD
:101AB0000120076E040E0024E96E000E0120EA6E7C
:101AC000EECF04F006C0E9FF07C0EAFFEECF00F05A
:101AD0000450002606C0E1FF07C0E2FF00C0E6FF99
:101AE00045C400F0000E016E060E046E000E056E79
:101AF0007CEC2EF04B0E0026040E0122020E002478
:101B000006012D6F000E01202E6F050E0024E96ED8
:101B1000000E0120EA6EEECF2BF624EC2CF0020E24
:101B2000046E000E056E57EC27F008C000F009C0E7
:101B300001F0005006012B5D046E2DC6E9FF2EC694
:101B4000EAFFEECF00F0045000262DC6E1FF2EC6BE
:101B5000E2FF00C0E6FF45C400F0000E016E060E75
:101B6000046E000E056E7CEC2EF04B0E0026040E6B
:101B70000122020E0024E96E000E0120EA6EEECF73
:101B800004F00450000A21E145C400F0000E016E8B
:101B9000060E046E000E056E7CEC2EF04B0E002639
:101BA000040E0122020E0024046E000E0120056EB8
:101BB00004C0E9FF05C0EAFFEECF00F0002A04C030
:101BC000E1FF05C0E2FF00C0E6FF45C400F0000EE3
:101BD000016E060E046E000E056E7CEC2EF04B0EB0
:101BE0000026040E0122020E0024E96E000E0120E0
:101BF000EA6EEECF4BF6010E0024E96E000E0120D6
:101C0000EA6EEECF4CF600C0E9FF01C0EAFFEECF6E
:101C10004DF6A2EC2CF00401452B0ED7010E060167
:101C20003D6F000E3E6F040E3F6F000E406F33ECB1
:101C30001AF006014B6B58EC2BF00401462BF7D63B
:101C4000100E0C6EFF0E0B6EFF0E0A6E0C2E01D0E6
:101C500007D00B2E01D003D00A2EFED7FAD7F6D725
:101C60004C0E0B6EFF0E0A6E0B2E01D003D00A2E07
:101C7000FED7FAD7CD0E0A6E0A2EFED7000000005E
:101C80000000442BA3D512000001025006180E6E6E
:101C9000086A096A0B6A0350076438EF0FF00650B0
:101CA0000A6E068E028E03500B6E0750036E000EF6
:101CB0000B6488EF0EF00B50075ED8B429EF0FF0DD
:101CC000070E0764F7EF0EF0075E00C008F001C0D2
:101CD00000F002C001F0026A074E29EF0FF007641E
:101CE000CCEF0EF0075E00C008F001C000F0016A02
:101CF000074E29EF0FF00764AAEF0EF0075E00C051
:101D000008F0006A074E29EF0FF0076491EF0EF01C
:101D10000AC002F005C001F004C000F0086A55EFE7
:101D200010F0030E07649CEF0EF0075E08380F0BEF
:101D3000086E074E29EF0FF0D8900832074E29EFB2
:101D40000FF0D8900832074E29EF0FF0D8900832E4
:101D500029EF0FF0030E0764BBEF0EF0075E0838A3
:101D60000F0B086E0038F00B082600380F0B006EC2
:101D7000074E29EF0FF0D89000320832074E29EFB6
:101D80000FF0D89000320832074E29EF0FF0D890AC
:101D90000032083229EF0FF0030E0764E3EF0EF074
:101DA000075E08380F0B086E0038F00B0826003865
:101DB0000F0B006E0138F00B002601380F0B016E7F
:101DC000074E29EF0FF0D890013200320832074E4B
:101DD00029EF0FF0D890013200320832074E29EF78
:101DE0000FF0D89001320032083229EF0FF0030EC5
:101DF000076414EF0FF0075E08380F0B086E003809
:101E0000F00B082600380F0B006E0138F00B00268F
:101E100001380F0B016E0238F00B012602380F0B50
:101E2000026E074E29EF0FF0D890023201320032D5
:101E30000832074E29EF0FF0D890023201320032FB
:101E40000832074E29EF0FF0D890023201320032EB
:101E50000832096A000E0EAE1DEF10F0081E001EBB
:101E6000011E021E082A0022012202221DEF10F08C
:101E70000750D8A43EEF0FF055EF10F0096A02C0EA
:101E80000AF0028E068E0750035C076ED8B410EF7E
:101E900010F0070E0764DEEF0FF0075E0450096EC6
:101EA0000550046E0650056E066A074E10EF10F0DE
:101EB000070E0764B3EF0FF0075E0450096E05507C
:101EC000046E056A074E10EF10F0070E076491EFDD
:101ED0000FF0075E0450096E046A074E10EF10F011
:101EE000070E076478EF0FF00AC002F055EF10F00C
:101EF000030E076483EF0FF0075E09380F0B096EBE
:101F0000074E10EF10F0D8900932074E10EF10F086
:101F1000D8900932074E10EF10F0D890093210EF28
:101F200010F0030E0764A2EF0FF0075E09380F0BE5
:101F3000096E0438F00B092604380F0B046E074EA7
:101F400010EF10F0D89004320932074E10EF10F065
:101F5000D89004320932074E10EF10F0D8900432B6
:101F6000093210EF10F0030E0764CAEF0FF0075E9E
:101F700009380F0B096E0438F00B092604380F0BD3
:101F8000046E0538F00B042605380F0B056E074E5E
:101F900010EF10F0D890053204320932074E10EFDE
:101FA00010F0D890053204320932074E10EF10F0CD
:101FB000D89005320432093210EF10F0030E076496
:101FC000FBEF0FF0075E09380F0B096E0438F00BBA
:101FD000092604380F0B046E0538F00B042605386B
:101FE0000F0B056E0638F00B052606380F0B066E34
:101FF000074E10EF10F0D890063205320432093245
:10200000074E10EF10F0D890063205320432093234
:10201000074E10EF10F0D890063205320432093224
:10202000086A000E0EAE1DEF10F0091E041E051EFC
:10203000061E092A042205220622095008260450F9
:10204000002205500122065002220EBE34EF10F08D
:10205000D8A043EF10F00232013200320832033EC2
:1020600043EF10F04FEF10F0D8B049EF10F0000E32
:10207000081E001E011E021E082A00220122022242
:102080000A7E49EF10F0010E0C6E4EEC18F057EF7F
:1020900010F0020E0C6E4EEC18F057EF10F0040E1C
:1020A0000C6E78EC2FF057EF10F0000E0C6E120053
:1020B00004014B6B4C6B06014B6B58EC2BF004018D
:1020C0004551010AD8A48FD0486B080E485D21E223
:1020D000496B080E495D1BE224EC2CF0020E046EE5
:1020E000000E056E57EC27F008C000F009C001F0A3
:1020F000070E0002F3CF00F000C04BF649C44CF6C7
:1021000048C44DF6A2EC2CF00401492BE2D7482B31
:10211000DCD74A6B800E006E800E4419005C02E131
:1021200043514A5D60E224EC2CF0080E046E000E70
:10213000056E57EC27F008C000F009C001F000C0A0
:1021400048F424EC2CF0080E046E000E056E57ECDB
:1021500027F008C000F009C001F000C049F40050A9
:1021600004014C193DE048514B193AE006013D6B22
:1021700049C43EF648C43FF6E0EC2BF000520EE0B6
:102180002F6B49C430F648C431F645C432F646C414
:1021900033F6000E346F44EC19F00FD0070E060131
:1021A0002F6F49C430F648C431F645C432F646C4F0
:1021B00033F6000E346F44EC19F0010E06013D6F4A
:1021C000000E3E6F47C43FF6000E406F33EC1AF02E
:1021D000165202E0166A120049C44CF448C44BF48B
:1021E00004014A2B97D704014551020AD8A48FD085
:1021F000486B080E485D21E2496B080E495D1BE201
:1022000024EC2CF0020E046E000E056E57EC27F045
:1022100008C000F009C001F0070E0002F3CF00F083
:1022200000C04CF649C44BF648C44DF6A2EC2CF065
:102230000401492BE2D7482BDCD74A6B800E006E95
:10224000800E4419005C02E143514A5D60E224ECD7
:102250002CF0080E046E000E056E57EC27F008C037
:1022600000F009C001F000C048F424EC2CF0080E86
:10227000046E000E056E57EC27F008C000F009C090
:1022800001F000C049F4005004014C193DE04851F0
:102290004B193AE049C43DF606013E6B48C43FF68F
:1022A000E0EC2BF000520EE049C42FF6306B48C42E
:1022B00031F645C432F646C433F6000E346F44ECB2
:1022C00019F00FD049C42FF6070E0601306F48C42D
:1022D00031F645C432F646C433F6000E346F44EC92
:1022E00019F0010E06013D6F000E3E6F47C43FF628
:1022F000000E406F33EC1AF0165202E0166A12001C
:1023000049C44CF448C44BF404014A2B97D7040148
:102310004551030AD8A48FD0486B080E485D21E2CE
:10232000496B080E495D1BE224EC2CF0020E046E92
:10233000000E056E57EC27F008C000F009C001F050
:10234000070E0002F3CF00F000C04DF649C44BF673
:1023500048C44CF6A2EC2CF00401492BE2D7482BE0
:10236000DCD74A6B800E006E800E4419005C02E1DF
:1023700043514A5D60E224EC2CF0080E046E000E1E
:10238000056E57EC27F008C000F009C001F000C04E
:1023900048F424EC2CF0080E046E000E056E57EC89
:1023A00027F008C000F009C001F000C049F4005057
:1023B00004014C193DE048514B193AE049C43DF63F
:1023C00048C43EF606013F6BE0EC2BF000520EE0F5
:1023D00049C42FF648C430F6316B45C432F646C4C2
:1023E00033F6000E346F44EC19F00FD049C42FF6C9
:1023F00048C430F6070E0601316F45C432F646C4B4
:1024000033F6000E346F44EC19F0010E06013D6FF7
:10241000000E3E6F47C43FF6000E406F33EC1AF0DB
:10242000165202E0166A120049C44CF448C44BF438
:1024300004014A2B97D70401120006014B6B58EC9C
:102440002BF00401C86BC96B800EC919006E800E99
:10245000005C02E1400EC85D23E2480EC825E16E33
:10246000040EC921E26EE66A880EC825CC6F040E00
:10247000C921CD6F24EC2CF0080E046E000E056E01
:1024800057EC27F008C000F009C001F0CCC4E1FF10
:10249000CDC4E2FF00C0E6FF0401C84BC92BD4D76E
:1024A0000401C86BC96B800EC919006E800E005CF8
:1024B00002E1080EC85D54E2CA6BCB6B800ECB19EB
:1024C000006E800E005C02E1400ECA5D29E2480EFB
:1024D000CA25E96E040ECB21EA6EEECF04F0880E19
:1024E000CA25E96E040ECB21EA6EEECF02F002504F
:1024F000045C13E2480ECA25026E040ECB21036E63
:1025000002C0E9FF03C0EAFFEECF00F0002A02C0DC
:10251000E1FF03C0E2FF00C0E6FFCA4BCB2BCED7E2
:1025200043C43DF6480E06013E6F040E3F6F47C49C
:1025300040F6000E416F49EC23F0010E06013D6F9D
:10254000000E3E6F44C43FF6000E406F33EC1AF0AD
:10255000165202E0166A12000401C84BC92BA3D719
:102560000401C86BC96B800EC919006E800E005C37
:1025700002E1400EC85D0BE2880EC825E16E040E34
:10258000C921E26E070EE66EC84BC92BECD7010ECF
:1025900006013D6F000E3E6F45C43FF646C440F64F
:1025A00033EC1AF00401C86BC96B800EC919006EB8
:1025B000800E005C02E1080EC85DD8B07AD0CA6B0C
:1025C000CB6B800ECB19006E800E005C02E1400EDA
:1025D000CA5D4FE2480ECA25E96E040ECB21EA6EB1
:1025E000EECF04F0880ECA25E96E040ECB21EA6E08
:1025F000EECF02F00250045C13E2480ECA25026ED0
:10260000040ECB21036E02C0E9FF03C0EAFFEECF48
:1026100000F0002A02C0E1FF03C0E2FF00C0E6FFB5
:10262000480ECA25E96E040ECB21EA6EEECF04F007
:10263000880ECA25E96E040ECB21EA6EEECF02F0B9
:102640000450025C13E2480ECA25026E040ECB2130
:10265000036E02C0E9FF03C0EAFFEECF00F0000600
:1026600002C0E1FF03C0E2FF00C0E6FFCA4BCB2B74
:10267000A8D743C43DF6480E06013E6F040E3F6FD7
:1026800047C440F6000E416F49EC23F0010E0601ED
:102690003D6F000E3E6F44C43FF6000E406F33ECBA
:1026A0001AF0165202E0166A12000401C84BC92B38
:1026B0007CD7010E06013D6F000E3E6F010E046EC9
:1026C00045C400F046C401F00450060105E00036A0
:1026D00000900136FF0FF9D7060100C03FF601C098
:1026E00040F633EC1AF012000601536B046A056AD7
:1026F000066A076A4BC600F04CC601F04DC602F0F0
:102700004EC603F022EC26F0010ED8B0000E006E8B
:10271000005204E006014D7F010E536F4BC600F0DE
:102720004CC601F04DC602F04EC603F0830E046E97
:10273000F90E056E220E066E7C0E076EB5EC22F0C9
:1027400000C04BF601C04CF602C04DF603C04EF679
:1027500000C054F601C055F602C056F603C057F645
:10276000E1EC20F000C004F001C005F002C006F06A
:1027700003C007F04BC600F04CC601F04DC602F096
:102780004EC603F0A2EC2FF0000E046E000E056E94
:10279000000E066E810E076EB5EC22F000C04BF6FF
:1027A00001C04CF602C04DF603C04EF600C004F066
:1027B00001C005F002C006F003C007F0000E006E75
:1027C000000E016E000E026E800E036E22EC26F0EB
:1027D000010ED8B0000E006E005220E0000E046E14
:1027E000000E056E000E066E800E076E4BC600F0E2
:1027F0004CC601F04DC602F04EC603F0A2EC2FF01D
:1028000000C04BF601C04CF602C04DF603C04EF6B8
:1028100006015353010ED8A4000E536F06014BC698
:1028200004F04CC605F04DC606F04EC607F0000E8B
:10283000006E000E016E000E026E7F0E036E22EC23
:1028400026F0010ED8B0000E006E00521AE04BC602
:1028500004F04CC605F04DC606F04EC607F0000E5B
:10286000006E000E016E000E026E800E036EA2EC72
:102870002FF000C04BF601C04CF602C04DF603C06D
:102880004EF64BC600F04CC601F04DC602F04EC6E7
:1028900003F04BC604F04CC605F04DC606F04EC61C
:1028A00007F0B5EC22F000C04FF601C050F602C0B0
:1028B00051F603C052F600C054F601C055F602C0EE
:1028C00056F603C057F6620E0601586F5F0E596F39
:1028D000000E5A6F040E5B6F000E5C6F7FEC21F0F0
:1028E0004BC604F04CC605F04DC606F04EC607F0C8
:1028F000B5EC22F000C04BF601C04CF602C04DF61C
:1029000003C04EF64FC654F650C655F651C656F69D
:1029100052C657F6760E0601586F5F0E596F000EBD
:102920005A6F030E5B6F000E5C6F7FEC21F000C0EE
:1029300004F001C005F002C006F003C007F04BC66A
:1029400000F04CC601F04DC602F04EC603F0EDECAF
:102950001EF000C04BF601C04CF602C04DF603C09D
:102960004EF6060153530DE0000E4B19006E000E9B
:102970004C19016E800E4D19026E000E4E19036E39
:1029800012004BC600F04CC601F04DC602F04EC618
:1029900003F0120031C63DF634C63EF6310E060194
:1029A0003F6F060E406F340E416F060E426F44ECCF
:1029B0002FF030C63DF633C63EF6300E06013F6FAF
:1029C000060E406F330E416F060E426F44EC2FF03F
:1029D0002FC63DF632C63EF62F0E06013F6F060E9D
:1029E000406F320E416F060E426F44EC2FF02FC63F
:1029F00035F606013551325DD8A009D130C636F61C
:102A00003651335DD8A001D131C637F63751345D28
:102A1000D8A0F9D02F51355D0AE33551325D07E377
:102A20003651301904E137513119D8B489D02F51BA
:102A3000355D0AE33551325D07E33651331904E160
:102A400037513119D8B47CD02F51355D0AE3355157
:102A5000325D07E33651301904E137513419D8B4E7
:102A60006FD02F51355D0AE33551325D07E33651A2
:102A7000331904E137513419D8B462D035512F19C4
:102A80000AE13651301907E13151375D04E337511E
:102A9000345DD8B055D035512F1909E1365133196D
:102AA00006E13151375D03E33751345D49E2355179
:102AB000321909E13651301906E13151375D03E32E
:102AC0003751345D3DE23551321909E13651331940
:102AD00006E13151375D03E33751345D31E2355161
:102AE0002F1909E13051365D06E33651335D03E3BA
:102AF0003751311925E035512F1909E13051365D33
:102B000006E33651335D03E33751341919E035518B
:102B1000321909E13051365D06E33651335D03E386
:102B2000375131190DE03551321909E13051365D17
:102B300006E33651335D03E33751341901E031D0F8
:102B4000060E046E35C600F0000E016E045006013C
:102B500005E0003600900136FF0FF9D70601180E88
:102B60000024386F000E0120396F030E046E36C644
:102B700000F0000E016E0450060105E000360090E2
:102B80000136FF0FF9D706013851002639510122CD
:102B900037510024E16E000E0120E26EFF0EE66E5A
:102BA00030D00601060E046E35C600F0000E016E30
:102BB0000450060105E0003600900136FF0FF9D7FA
:102BC0000601180E0024386F000E0120396F030E25
:102BD000046E36C600F0000E016E0450060105E0DA
:102BE000003600900136FF0FF9D706013851002654
:102BF0003951012237510024E16E000E0120E26EAE
:102C0000E66A372B03D7362BFBD6352BF2D61200CC
:102C100004015B6B5C6B020E596F000E5A6FFF0E66
:102C2000461902E1FF0E451904E1070E5B6F000E25
:102C30005C6F24EC2CF0080E046E000E056E57EC51
:102C400027F008C000F009C001F000C04BF401C03B
:102C50004CF424EC2CF0080E046E000E056E57ECBC
:102C600027F008C000F009C001F000C04DF401C019
:102C70004EF404014F6B506B800E5019006E800EA5
:102C80004819005C02E147514F5DD8B0E5D024EC13
:102C90002CF0030E046E000E056E57EC27F008C0F2
:102CA00000F009C001F0010E005C0401556F000E38
:102CB0000158566F24EC2CF0030E046E000E056EC6
:102CC00057EC27F008C000F009C001F0010E005CCD
:102CD0000401576F000E0158586F55514B25026E75
:102CE00056514C21036E800E006E800E0318005C5E
:102CF00002E10250000813E255514B25026E565175
:102D00004C21036E800E0318006E800E005C02E101
:102D1000080E025C04E255514B2756514C23040126
:102D200057514D25026E58514E21036E800E006E94
:102D3000800E0318005C02E10250000813E25751B4
:102D40004D25026E58514E21036E800E0318006E01
:102D5000800E005C02E1080E025C04E257514D2730
:102D600058514E2343C42FF645C430F697EC1FF05C
:102D70000401516B526B800E5219006E800E5A196D
:102D8000005C02E15951515D54E2536B546B800E6B
:102D90005419006E800E5A19005C02E15951535DBE
:102DA00044E2000E441902E1010E431912E15BC432
:102DB0004BF653514D2506014C6F040151514B25E3
:102DC00006014D6FA2EC2CF0010E04015B5F000EBA
:102DD0005C5B0401000E441902E1020E43190DE18F
:102DE00053514D2506014B6F5BC44CF60401515104
:102DF0004B2506014D6FA2EC2CF0000E0401441986
:102E000002E1030E43190DE153514B2506014B6FAF
:102E1000040151514D2506014C6F5BC44DF6A2ECE7
:102E20002CF00401534B542BB2D70401514B522BBD
:102E3000A2D7010E06013D6F000E3E6F49C43FF65A
:102E40004AC440F633EC1AF0165202E0166A120039
:102E500004014F4B502B10D71200010E0401C96F13
:102E6000010ECA6FCB6B06014B6B58EC2BF00401C3
:102E7000476B400E475D0BE2890EE16E040EE26E79
:102E80004751E126D8B0E22AE66A472BF2D704017F
:102E9000C953D8B4F7D04651010A3EE1010ECA6FBA
:102EA0000401CA5338E0400ECB5D35E224EC2CF02F
:102EB000400E046E000E056E57EC27F008C000F0BF
:102EC00009C001F000C047F4890EE96E040EEA6EF5
:102ED0000050E926D8B0EA2AEECF02F00250000AEC
:102EE00018E10401CB2B890E026E040E036E4751CC
:102EF0000226D8B0032A02C0E9FF03C0EAFFEECFE2
:102F000000F0002A02C0E1FF03C0E2FF00C0E6FFBC
:102F1000CA6B0401C5D71DD004014651020A19E14C
:102F2000400ECB5D16E2890E026E040E036ECB518D
:102F30000226D8B0032A02C0E9FF03C0EAFFEECFA1
:102F400000F0002A02C0E1FF03C0E2FF00C0E6FF7C
:102F5000CB2B0401486B476B400E475D3FE2890E67
:102F6000E96E040EEA6E4751E926D8B0EA2AEECFA0
:102F700002F00250000822E2890EE96E040EEA6EA9
:102F80004751E926D8B0EA2AEECF02F0070E025CDC
:102F900015E2890E026E040E036E47510226D8B068
:102FA000032A02C0E9FF03C0EAFFEECF00F0002AC7
:102FB00002C0E1FF03C0E2FF00C0E6FF890EE96E38
:102FC000040EEA6E4751E926D8B0EA2AEECF02F0A5
:102FD0000250070AD8B4482B472BBED74851400AA5
:102FE000D8B4C96B476B400E475D31E24451000ACB
:102FF00015E1490EE16E040EE26E4751E126D8B0AC
:10300000E22A890EE96E040EEA6E4751E926D8B02D
:10301000EA2AEECF00F000C0E6FF17D0490EE16EBD
:10302000040EE26E4751E126D8B0E22A890EE96E1D
:10303000040EEA6E4751E926D8B0EA2AEECF00F036
:1030400000500708006E00C0E6FF472BCCD7010EEA
:1030500006013D6F000E3E6F45C43FF6000E406F07
:1030600033EC1AF0165202E0166A120043C43DF621
:10307000490E06013E6F040E3F6F406B416B49ECF9
:1030800023F005D7010E06013D6F000E3E6F500E76
:103090003F6F000E406F33EC1AF0120000010CB0CD
:1030A00091EF18F00CA239EF19F00E6A000E0264CD
:1030B000A8EF18F0F00E0214D8A473EF18F0023A3B
:1030C00001380F0B02260138F00B016E00380F0B90
:1030D00001260038F00B006E08380F0B0026083868
:1030E000F00B086E0E84D89002BE8CEF18F00836F4
:1030F0000036013602360E2A02BE8CEF18F0083672
:103100000036013602360E2A02BE8CEF18F0083661
:103110000036013602360E2A0E5003642DEF19F0E8
:10312000035E0BBC08AE33EF19F0D880800E086444
:103130000030000E002201220222D8A033EF19F045
:10314000023201320032034A39EF19F033EF19F03D
:1031500001C002F000C001F008C000F0086A000ED3
:103160000E860264DFEF18F0F00E0214D8A4C7EF49
:1031700018F0023A01380F0B02260138F00B016EED
:1031800000380F0B01260038F00B006E0E84D8902B
:1031900002BE8CEF18F00036013602360E2A02BE4F
:1031A0008CEF18F00036013602360E2A02BE8CEF84
:1031B00018F00036013602360E2A8CEF18F001C0E6
:1031C00002F000C001F0006A000E0E960E88026444
:1031D0000CEF19F0F00E0214D8A4F7EF18F0023A31
:1031E00001380F0B02260138F00B016E0E84D890C7
:1031F00002BE8CEF18F0013602360E2A02BE8CEFAA
:1032000018F0013602360E2A02BE8CEF18F0013695
:1032100002360E2A8CEF18F001C002F0016A000E8F
:103220000E8602643FEF19F0F00E0214D8A41BEFD3
:1032300019F0023A0E84D89002BE8CEF18F00236D4
:103240000E2A02BE8CEF18F002360E2A02BE8CEF58
:1032500018F002360E2A8CEF18F0010E0C6E6AEC94
:103260002FF043EF19F0020E0C6EA7EC2FF043EF96
:1032700019F0040E0C6E78EC2FF043EF19F0080EE5
:103280000C6E9AEC2FF0120006013251010A4BE14C
:10329000356B366B800E3619006E800E005C02E1D5
:1032A000080E355D40E22F51070A15E13551070838
:1032B000006E36C601F0E86A015600C037F601C05C
:1032C00038F60050010F4B6F30C64CF631C64DF644
:1032D00018EC2DF00DD035C637F636C638F6060197
:1032E00035054B6F30C64CF631C64DF618EC2DF057
:1032F00037C64BF630C64CF631C64DF6A2EC2CF074
:10330000010E06013D6F000E3E6F33C63FF634C618
:1033100040F633EC1AF0165202E0166A120006016B
:10332000354B362BB7D706013251020A4BE1356BCC
:10333000366B800E3619006E800E005C02E1080EBE
:10334000355D40E23051070A15E135510708006E3E
:1033500036C601F0E86A015600C037F601C038F6FB
:103360002FC64BF60050010F4C6F31C64DF618ECCE
:103370002DF00DD035C637F636C638F62FC64BF6CB
:10338000060135054C6F31C64DF618EC2DF02FC6F1
:103390004BF637C64CF631C64DF6A2EC2CF0010EBA
:1033A00006013D6F000E3E6F33C63FF634C640F651
:1033B00033EC1AF0165202E0166A12000601354B81
:1033C000362BB7D706013251030A4BE1356B366B0A
:1033D000800E3619006E800E005C02E1080E355D2D
:1033E00040E23151070A15E135510708006E36C633
:1033F00001F0E86A015600C037F601C038F62FC662
:103400004BF630C64CF60050010F4D6F18EC2DF006
:103410000DD035C637F636C638F62FC64BF630C651
:103420004CF6060135054D6F18EC2DF02FC64BF606
:1034300030C64CF637C64DF6A2EC2CF0010E060154
:103440003D6F000E3E6F33C63FF634C640F633EC98
:103450001AF0165202E0166A12000601354B362B9E
:10346000B7D7060112000601476B486B800E48195A
:10347000006E800E4019005C02E13F51475DD8B0FC
:10348000DAD0456B466B800E4619006E800E005CEC
:1034900002E1080E455DD8B0CAD0070E436F000E9A
:1034A000446F800E4419006E800E005C02E1000E35
:1034B000435D50E3070E416F000E426F800E4219CC
:1034C000006E800E005C02E1000E415D3DE3060EE1
:1034D000046E45C600F046C601F00450060105E042
:1034E000003600900136FF0FF9D70601180E0024B0
:1034F000496F000E01204A6F030E046E43C600F0B0
:1035000044C601F00450060105E000360090013683
:10351000FF0FF9D70601495100264A5101224151B6
:103520000024E96E42510120EA6EEECF00F0000E59
:1035300000B0020E8018020B801A80808090010E6D
:10354000415F000E425BBAD70601010E435F000ED9
:10355000445BA7D7060180842AD00601800E816EC5
:10356000826A57D00601400E816E826A52D00601EF
:10357000200E816E826A4DD00601100E816E826A25
:1035800048D00601080E816E826A43D00601040EFF
:10359000816E826A3ED00601020E816E826A39D047
:1035A0000601816A040E826E34D0060132D0060113
:1035B000000E461902E1000E4519CFE0000E461933
:1035C00002E1010E4519CEE0000E461902E1020E9D
:1035D0004519CDE0000E461902E1030E4519CCE075
:1035E000000E461902E1040E4519CBE0000E461903
:1035F00002E1050E4519CAE0000E461902E1060E69
:103600004519C9E0000E461902E1070E4519C8E048
:10361000CCD706013DC64BF63EC64CF6C8EC2EF0A4
:103620008094816A826A0601454B462B2CD706019D
:10363000474B482B1BD712000401C56BC66B800E8D
:10364000C619006E800E005C02E1400EC55D24E2EA
:10365000450EC525E16E040EC621E26E040EE66E2F
:10366000850EC525CB6F040EC621CC6F24EC2CF043
:10367000080E046E000E056E57EC27F008C000F02F
:1036800009C001F0CBC4E1FFCCC4E2FF00C0E6FFFB
:103690000401C54BC62BD3D70401C56BC66B800E86
:1036A000C619006E800E005C02E1080EC55D20E2C6
:1036B000450E06012F6F040E306F850E316F040E1C
:1036C000326F010E336F8AEC26F0010E06013D6F5A
:1036D000000E3E6F040E3F6F000E406F33EC1AF089
:1036E000165202E0166A12000401C54BC62BD7D74A
:1036F0000401C56BC66B800EC619006E800E44199E
:10370000005C02E14351C55D6FE2C96BCA6B800E7C
:10371000CA19006E800E005C02E1080EC95D1CE251
:10372000450E06012F6F040E306F850E316F040EAB
:10373000326F010E336F8AEC26F0010E06013D6FE9
:10374000000E3E6F040E3F6F000E406F33EC1AF018
:103750000401C94BCA2BDBD7010E06013D6F000ED9
:103760003E6F640E3F6F000E406F33EC1AF016523E
:1037700002E0166A12000401C76BC86B800EC819FC
:10378000006E800E005C02E1200EC75D29E224EC91
:103790002CF0400E046E000E056E57EC27F008C0AA
:1037A00000F009C001F0850E00240401CB6F040E67
:1037B0000120CC6F24EC2CF0080E046E000E056E78
:1037C00057EC27F008C000F009C001F0CBC4E1FFBE
:1037D000CCC4E2FF00C0E6FF0401C74BC82BCED724
:1037E0000401C54BC62B87D7120006014B6B58EC62
:1037F0002BF006012F6B4D0E306F040E316F1C0E37
:10380000326F000E336FDDEC2CF045C4E9FF46C487
:10381000EAFFEECF00F00052D8B48BD045C4E9FFE8
:1038200046C4EAFFEECF2FF6690E0601306F040E94
:10383000316FCFEC2AF00401454B462B4B6B4C6BA0
:10384000800E4C19006E800E005C02E1080E4B5D8C
:1038500055E2690E4B25E96E040E4C21EA6EEECF5F
:1038600071F4476B486B800E4819006E800E005C47
:1038700002E1080E475D24E247C401F071C400F084
:103880000150040104E00032009EFF0FFAD7010E40
:103890000016005209E047C44BF6070E06014C6FB4
:1038A0004D6BA2EC2CF008D047C44BF6070E060176
:1038B0004C6F4D6B18EC2DF00401474B482BD3D7C0
:1038C0004D0E06012F6F040E306F1C0E316F000E6F
:1038D000326F41EC20F0010E06013D6F000E3E6F8D
:1038E00043C43FF644C440F633EC1AF0165202E0EB
:1038F000166A120004014B4B4C2BA2D74D0E060149
:103900002F6F040E306F1C0E316F000E326F41ECC2
:1039100020F0010E06013D6F000E3E6F43C43FF6DE
:1039200044C440F633EC1AF0165202E0166A120054
:103930006CD70401496B4A6B800E4A19006E800EE9
:10394000005C02E11C0E495D1EE24D0E06012F6F68
:10395000040E306F1C0E316F000E326F41EC20F000
:10396000010E06013D6F000E3E6F43C43FF644C496
:1039700040F633EC1AF0165202E0166A1200040107
:10398000494B4A2BD9D7120006014B6B58EC2BF050
:1039900006012F6B4E0E306F040E316F1C0E326F0E
:1039A000000E336FDDEC2CF004014A6B4B6B800E84
:1039B0004B19006E800E4719005C02E146514A5DCA
:1039C000D8B080D04C6B4D6B800E4D19006E800EC0
:1039D000005C02E1080E4C5D47E2486B496B800ECB
:1039E0004919006E800E005C02E1080E485D1EE27F
:1039F00045C42FF648C430F64CC431F652EC2DF0D5
:103A0000005208E048C44BF6070E4C6F4D6BA2EC19
:103A10002CF008D048C44BF6070E06014C6F4D6BD6
:103A200018EC2DF00401484B492BD9D7010E0601A3
:103A30003D6F000E3E6F43C43FF644C440F633EC86
:103A40001AF0165202E0166A12004E0E06012F6F8F
:103A5000040E306F1C0E316F000E326F41EC20F0FF
:103A600004014C4B4D2BB0D704014C6B4D6B800EB9
:103A70004D19006E800E005C02E1140E4C5D1EE2DA
:103A8000010E06013D6F000E3E6F43C43FF644C475
:103A900040F633EC1AF0165202E0166A12004E0E8F
:103AA00006012F6F040E306F1C0E316F000E326F47
:103AB00041EC20F004014C4B4D2BD9D704014A4B6B
:103AC0004B2B75D704014C6B4D6B800E4D19006E5E
:103AD000800E005C02E10A0E4C5D1EE2010E060142
:103AE0003D6F000E3E6F43C43FF644C440F633ECD6
:103AF0001AF0165202E0166A12004E0E06012F6FDF
:103B0000040E306F1C0E316F000E326F41EC20F04E
:103B100004014C4B4D2BD9D71200010E04014B6F01
:103B2000000E4C6F040E47154D6F48C44EF4000E46
:103B30004E17020E4F6F000E506F476B486B800E92
:103B40004819006E800E005C02E1080E475DD8B097
:103B500099D0436B446B800E4419006E800E4C1953
:103B6000005C02E14B51435DD8B088D0456B466B99
:103B7000800E4619006E800E005C02E1100E455D5D
:103B8000D8B078D045510708496F46C44AF4E86A6E
:103B90004A57800E006E800E4619005C02E14551C6
:103BA000070806E2080E455D496F000E46594A6F48
:103BB00006014B6B58EC2BF0010E06013D6F000E19
:103BC0003E6F010E3F6F000E406F33EC1AF016523D
:103BD00002E0166A120006012F6B306B316B49C48C
:103BE00032F649C433F649C434F6CAEC14F0800EF8
:103BF000006E800E04014E19005C02E14D51000878
:103C000002E2D2EC29F0000E0401481902E1050E8F
:103C1000471906E0000E481902E1070E471903E1B3
:103C200004017BEC29F0000E0401481902E1060EA4
:103C3000471906E0000E481902E1070E471903E193
:103C40000401CDEC28F0010E06013D6F000E3E6F21
:103C50004FC43FF650C440F633EC1AF006014B6BEC
:103C600058EC2BF0165202E0166A12000401454B84
:103C7000462B7ED70401434B442B6DD70401474BA1
:103C8000482B5DD7120006014B6B58EC2BF043C458
:103C9000E9FF44C4EAFFEECF00F00052D8B49CD054
:103CA00043C4E9FF44C4EAFFEECF2FF64B0E0601F2
:103CB000306F040E316FCFEC2AF00401434B442BDC
:103CC000070E476F000E486F800E4819006E800E79
:103CD000005C02E1000E475D38E3070E456F000E01
:103CE000466F800E4619006E800E005C02E1000EE9
:103CF000455D25E34B0E4725E96E040E4821EA6E2B
:103D0000EECF02F045C401F002C000F00150040102
:103D100004E00032009EFF0FFAD7010E0016005299
:103D200008E045C44BF647C44CF606014D6BA2ECC7
:103D30002CF0010E0401455F000E465BD2D7040152
:103D4000010E475F000E485BBFD70401496B4A6B09
:103D5000800E4A19006E800E005C02E1080E495D7B
:103D60001AE2010E06013D6F000E3E6F030E3F6F1B
:103D7000000E406F33EC1AF0165202E0166A120081
:103D8000030E06012F6F010E306F97EC1FF0040138
:103D9000494B4A2BDDD70401030E0C6EFF0E0B6E50
:103DA000FF0E0A6E0C2E01D007D00B2E01D003D0CF
:103DB0000A2EFED7FAD7F6D78C0E0B6EFF0E0A6EC0
:103DC0000B2E01D003D00A2EFED7FAD7A10E0A6E11
:103DD0000A2EFED700005BD712000001086A096AAC
:103DE0000750D8B484EF1FF00350D8B489EF1FF008
:103DF000025006180A6E028E068E0E6A02C008F085
:103E000001C00CF000C00DF004500D5E0550D8A0AC
:103E1000053C0C5E0650D8A0063C085E086A0C6A99
:103E20000D6AD8A01BEF1FF0D89002320132003289
:103E30000832010E0E6E0750035ED8A028EF1FF067
:103E40007E0E0E240326D8B08EEF1FF02EEF1FF04B
:103E50007E0E0E240326D8A093EF1FF0180E0B6ED3
:103E60000D360C3608360036013602360E36045052
:103E7000005E0550D8A0053C015E0650D8A0063C67
:103E8000025E06340E120EA049EF1FF00D8054EFB3
:103E90001FF0045000260550D8B0053C01260650FE
:103EA000D8B0062802260D900B2E30EF1FF07AEFC7
:103EB0001FF0D8900036013602360E360450005EF0
:103EC0000550D8A0053C015E0650D8A0063C025E15
:103ED00006340E10010B0D26D8B00C2AD8B4082ACF
:103EE000D8A47AEF1FF008320C320D32032AD8B46E
:103EF0008EEF1FF00AAE089E0850026E0C50016E45
:103F00000D50006E96EF1FF0010EACEC2FF096EF07
:103F10001FF0020E9AEC2FF096EF1FF0040E78ECD3
:103F20002FF096EF1FF0080E6AEC2FF0120006013A
:103F30002F51010A35E1316B080E315D31E2326BF0
:103F4000080E325D2BE2336B080E335D25E23051F3
:103F5000000A06E131C634F63151010F356F07D042
:103F600031510708006E00C034F60004356F35C6C5
:103F70003DF632C63EF633C63FF6E0EC2BF034C6D3
:103F80003DF632C63EF633C63FF600C040F6EBECD7
:103F90002EF00601332BD8D7322BD2D7312BCCD7EA
:103FA0002F51020A35E1316B080E315D31E2326B7F
:103FB000080E325D2BE2336B080E335D25E2305183
:103FC000000A08E132510708006E00C034F6000410
:103FD000356F05D032C634F63251010F356F31C618
:103FE0003DF635C63EF633C63FF6E0EC2BF031C663
:103FF0003DF634C63EF633C63FF600C040F6EBEC65
:104000002EF00601332BD8D7322BD2D7312BCCD779
:104010002F51030A35E1316B080E315D31E2326B0D
:10402000080E325D2BE2336B080E335D25E2305112
:10403000000A06E133C634F63351010F356F07D05D
:1040400033510708006E00C034F60004356F31C6E6
:104050003DF632C63EF635C63FF6E0EC2BF031C6F3
:104060003DF632C63EF634C63FF600C040F6EBECF5
:104070002EF00601332BD8D7322BD2D7312BCCD709
:104080001200010E0601315D336F000E3259346F9C
:10409000800E3419006E800E005C02E1010E335D6B
:1040A00060E3356B366B800E3619006E800E005C57
:1040B00002E1080E355D4FE235C63DF6010E335D77
:1040C000006E000E3459016E00502F25E96E01502C
:1040D0003021EA6EEECF03F003C000F00032009E04
:1040E0000032009E0032009E0032009E0F0E00162D
:1040F000005007083E6F03C000F00F0E001600507E
:1041000007083F6FE0EC2BF035C63DF633512F2505
:10411000E96E34513021EA6EEECF04F004C002F0B3
:104120000232029E0232029E0232029E0232029E3F
:104130000F0E0216025007083E6F0F0E0414026E97
:10414000025007083F6F00C040F6EBEC2EF006016E
:10415000354B362BA8D70601010E335F000E345BBA
:1041600097D70601356B366B800E3619006E800EC0
:10417000005C02E1080E355D23E235C64BF62FC622
:10418000E9FF30C6EAFFEECF03F003C000F00032D3
:10419000009E0032009E0032009E0032009E0F0EF4
:1041A0000016005007084C6F0F0E0314006E0050ED
:1041B00007084D6F18EC2DF00601354B362BD4D780
:1041C000120057C600F0016A026A036AFF0E001669
:1041D000000E011600C05CF601C05DF67F0E005CAB
:1041E000046E000E0158056E04C05CF605C05DF655
:1041F000800E0518006E800E005C02E1000E045C6B
:1042000023E2046A056A066A076A54C600F055C6C6
:1042100001F056C602F057C603F022EC26F0010E5C
:10422000D8B0000E006E005209E0000E006E000EC5
:10423000016E800E026E7F0E036E12000001006A96
:10424000016A026A036A1200000E006E06015D51E7
:10425000005C02E15C51180809E254C600F055C642
:1042600001F056C602F057C603F01200060154C60C
:1042700000F055C601F056C602F057C603F01BEC1D
:1042800022F0A5EC2EF000C058F601C059F602C08D
:104290005AF603C05BF600C004F001C005F002C08E
:1042A00006F003C007F054C600F055C601F056C62C
:1042B00002F057C603F022EC26F0010ED8B0000E33
:1042C000006E005213E0000E046E000E056E000E2C
:1042D000066E7F0E076E58C600F059C601F05AC62A
:1042E00002F05BC603F0A2EC2FF0120058C600F0FB
:1042F00059C601F05AC602F05BC603F01200020E66
:10430000046E5BC600F05CC601F0000E06015CBFE7
:10431000FF0E026E036E0450060107E000360090A7
:10432000013602360336FF0FF7D706015851002633
:10433000595101225A51022200C0F6FF01C0F7FF75
:1043400002C0F8FF0900F5CF5DF60900F5CF5EF673
:104350000900F5CF5FF60900F5CF60F606015B5165
:104360005C1160E054C600F055C601F056C602F07C
:1043700057C603F05DC604F05EC605F05FC606F0E2
:1043800060C607F0B5EC22F000C061F601C062F62D
:1043900002C063F603C064F6010E06015B5F000E07
:1043A0005C5B020E046E5BC600F05CC601F0000EA2
:1043B0005CBFFF0E026E036E0450060107E000367C
:1043C0000090013602360336FF0FF7D70601585129
:1043D0000026595101225A51022200C0F6FF01C0A5
:1043E000F7FF02C0F8FF0900F5CF00F00900F5CF94
:1043F00001F00900F5CF02F00900F5CF03F061C626
:1044000004F062C605F063C606F064C607F044EC2B
:104410000EF000C05DF601C05EF602C05FF603C09C
:1044200060F69CD75DC600F05EC601F05FC602F084
:1044300060C603F0120000010B6A0C6A086A0350A0
:10444000D8B4A0EF22F002C00AF0028E9E0E035EE6
:1044500003AE90EF22F0036C080E035CD8A05DEF72
:1044600022F0036E083600C008F001C000F002C060
:1044700001F0026A080E035CD8A05DEF22F0036E23
:10448000083600C008F001C000F0016A080E035CA5
:10449000D8A05DEF22F0036E083600C008F0006A75
:1044A000080E035CD8A05DEF22F0036E0836086AA0
:1044B0000350D8A4D89069EF22F00350D8B469EF24
:1044C00022F0D8900232013200320832032E61EF1E
:1044D00022F00BBC08A07AEF22F0D8A07AEF22F0ED
:1044E000082AD8B4002AD8B4012AD8B4022A02BEB5
:1044F000A4EF22F00AAEA0EF22F0021E011E001E61
:10450000081E082AD8B4002AD8B4012AD8B4022A2E
:10451000A0EF22F0026A016A006A086AA0EF22F0A6
:104520000B800BAEABEF22F0026A0AAEABEF22F0CB
:10453000026E016E006E086E0A360232ABEF22F098
:104540000C6A000EACEF22F0010E0C6E000E5BEC5C
:104550002FF0ACEF22F0FF0E0250036E0150026EFE
:104560000050016E0850006E12000001086A096ACE
:10457000000E076203643BEF23F0025006180A6E38
:10458000075003267E0ED8A0CCEF22F0035ED8B0F1
:1045900040EF23F0D0EF22F0035ED8A045EF23F0E8
:1045A000028E068E02C00EF001C00BF000C00DF0AE
:1045B00000500402F4CF0CF001500502F4CF00F0DB
:1045C000F3CF08F00402F3500C26F4500822000E3A
:1045D00000220D500502F3500C26F4500822000E64
:1045E000002202500402F3500826F4500022025028
:1045F0000502016A000E0122F3500026F450012248
:104600000D500602F3500826F4500022026A000EF4
:10461000012202220B500602F3500026F450012220
:10462000000E02220E500602F3500126F450022220
:1046300002BE23EF23F008360036013602360306A9
:10464000D8B445EF23F036EF23F0D880800E08640D
:104650000030000E002201220222D8A036EF23F003
:10466000023201320032034A40EF23F00AAE029ECA
:10467000000E48EF23F0010E9AEC2FF048EF23F0E4
:10468000020E78EC2FF048EF23F0040E6AEC2FF0C6
:10469000120006014B6B58EC2BF00601426B436B8A
:1046A000800E4319006E800E005C02E1080E425D30
:1046B000D8B07AD0446B456B800E4519006E800EE1
:1046C000005C02E1080E445D6BE24051411122E0C2
:1046D000030E046E42C600F043C601F0045006010A
:1046E00005E0003600900136FF0FF9D7060144516E
:1046F00000264551012200503E25E96E01503F2120
:10470000EA6EEECF00F000500708466F476B000ED0
:10471000475B1FD0030E046E42C600F043C601F093
:104720000450060105E0003600900136FF0FF9D76E
:104730000601445100264551012200503E25E96EF4
:1047400001503F21EA6EEECF46F6000E476F000E95
:10475000476F3D51010A08E146C64BF644C64CF688
:1047600042C64DF6A2EC2CF006013D51020A08E1CA
:1047700044C64BF646C64CF642C64DF6A2EC2CF0AB
:1047800006013D51030A08E142C64BF644C64CF609
:1047900046C64DF6A2EC2CF00601444B452B8CD7B7
:1047A0000601424B432B7CD712000401476B486B38
:1047B000496B4A6B800E4419006E800E4A19005CEA
:1047C00002E14951435DD8A07AD0476B486B800E17
:1047D0004819006E800E005C02E1080E475D6BE236
:1047E000010E06012F6F306B97EC1FF0070E0601CC
:1047F0004B6F47C44CF64D6BA2EC2CF0070E060134
:104800004B6F070E4C6F47C44DF6A2EC2CF0070E11
:1048100006014B6F04014751070806014C6F070E54
:104820004D6FA2EC2CF0070E06014B6F4C6B040190
:104830004751070806014D6FA2EC2CF0070E060148
:104840004B6F04014751070806014C6F4D6BA2ECFA
:104850002CF0070E06014B6F070E4C6F04014751F9
:10486000070806014D6FA2EC2CF0070E06014B6FF6
:1048700047C44CF6070E4D6FA2EC2CF0070E060154
:104880004B6F4C6B47C44DF6A2EC2CF0010E0601A9
:104890003D6F000E3E6F45C43FF646C440F633EC14
:1048A0001AF0165202E0166A12000401494B4A2B14
:1048B000474B482B8CD70401476B486B7BD71200C2
:1048C000040E0401476F000E486F06014B6B58EC55
:1048D0002BF006012F6B4B0E306F040E316F1C0E48
:1048E000326F000E336FDDEC2CF00401496B4A6B24
:1048F000800E4A19006E800E4419005C02E143519B
:10490000495D5AE224EC2CF0030E046E000E056E95
:1049100057EC27F008C000F009C001F0010E005E5E
:10492000000E015A005004014725026E0150482133
:10493000036E02C047F403C048F4800E006E800E80
:104940000318005C02E10250070804E2070E476FFB
:10495000000E486F0401800E4819006E800E005C46
:1049600002E1000E475D02E2476B486B4B0E060109
:104970002F6F040E306F1C0E316F000E326F41EC42
:1049800020F047C44BF6070E06014C6F4D6BA2ECAE
:104990002CF0010E06013D6F000E3E6F45C43FF640
:1049A00046C440F633EC1AF0165202E0166A1200C2
:1049B0000401494B4A2B9CD7120006014B6B58EC63
:1049C0002BF00401476B486B800E4819006E800E77
:1049D0004419005C02E14351475D5FE224EC2CF096
:1049E000040E046E000E056E57EC27F008C000F0B0
:1049F00009C001F000C04BF401C04CF40401456B48
:104A0000466B800E4619006E800E4C19005C02E168
:104A10004B51455D28E224EC2CF0080E046E000E8C
:104A2000056E57EC27F008C000F009C001F000C087
:104A300049F401C04AF424EC2CF0080E046E000E78
:104A4000056E57EC27F008C000F009C001F0060120
:104A50004B6B00C04CF649C44DF6A2EC2CF004019F
:104A6000454B462BCED7010E06013D6F000E3E6F23
:104A70000A0E3F6F000E406F33EC1AF0010E060174
:104A80002F6F010E306F97EC1FF0165202E0166A7E
:104A900012000401474B482B97D7120000010B6A04
:104AA0000350D8B495EF25F002500A6E028E8E0E98
:104AB000035E03AE99EF25F0036C080E035CD8A0EB
:104AC00074EF25F0036E013602C001F0026A080E91
:104AD000035CD8A074EF25F0036E0136016A035021
:104AE000D8A4D8907EEF25F00350D8B47EEF25F0FF
:104AF000D89002320132032E78EF25F00BBC01A0D2
:104B00008BEF25F0D8A08BEF25F0012AD8B4022A2C
:104B100002BEA8EF25F00AAEAEEF25F0021E011E80
:104B2000012AD8B4022AAEEF25F0026A016AAEEF7C
:104B300025F00B800BAEB2EF25F0026A0AAEB2EFA1
:104B400025F0FF0E026E016E0A360232B2EF25F03A
:104B5000010E0C6E5BEC2FF0B4EF25F0000E0C6E26
:104B6000B4EF25F0FF0E0C6E0150006E0250016E86
:104B7000120006014B6B58EC2BF00601356B366BBF
:104B8000800E3619006E800E3019005C02E12F5144
:104B9000355D57E2376B386B800E3219006E800E30
:104BA0003819005C02E13751315D38E324EC2CF018
:104BB000080E046E000E056E57EC27F008C000F0DA
:104BC00009C001F000C03BF601C03CF624EC2CF01B
:104BD000080E046E000E056E57EC27F008C000F0BA
:104BE00009C001F000C039F601C03AF624EC2CF0FF
:104BF000080E046E000E056E57EC27F008C000F09A
:104C000009C001F000C04BF639C64CF63BC64DF664
:104C1000A2EC2CF00601374B382BBED70601010E53
:104C20003D6F000E3E6F33C63FF634C640F633ECA0
:104C30001AF006014B6B58EC2BF00601354B362B66
:104C40009FD7120000010A6A0350D8A40A800750B7
:104C5000D8A40A820A50D8B486EF26F0030AD8B442
:104C60003FEF26F00AB03AEF26F006AE84EF26F0CA
:104C700082EF26F002AE82EF26F084EF26F002509B
:104C8000800B0A6E029E0650800B069E0A18D8B44E
:104C900050EF26F00A50D8B482EF26F084EF26F0C9
:104CA0000750035CD8B45AEF26F0D8A076EF26F070
:104CB0007CEF26F00650025CD8B464EF26F0D8A052
:104CC00076EF26F07CEF26F00550015CD8B46EEF4D
:104CD00026F0D8A076EF26F07CEF26F00450005C9A
:104CE000D8B486EF26F0D8B07CEF26F00A52D8B4BC
:104CF00084EF26F082EF26F00A52D8B482EF26F035
:104D000084EF26F0D8801200D8901200D880D88482
:104D1000120012000601346B356B800E3519006EDF
:104D2000800E005C02E1400E345D4FE234512F25CD
:104D3000E96E35513021EA6EEECF03F03451312562
:104D4000E96E35513221EA6EEECF01F00150035C7D
:104D500013E234512F25016E35513021026E01C00E
:104D6000E9FF02C0EAFFEECF00F0002A01C0E1FF38
:104D700002C0E2FF00C0E6FF34512F25E96E355135
:104D80003021EA6EEECF03F034513125E96E355112
:104D90003221EA6EEECF01F00350015C13E2345190
:104DA0002F25016E35513021026E01C0E9FF02C08E
:104DB000EAFFEECF00F0000601C0E1FF02C0E2FF13
:104DC00000C0E6FF344B352BA8D70601010E3D6F1E
:104DD0002FC63EF630C63FF6406B416B49EC23F0E0
:104DE0001200165202E0166A12000401436B446B73
:104DF000800E4419006E800E005C02E1180E435DC7
:104E000013E2030E06012F6F000E306F43C431F61C
:104E100044C432F6030E336F000E346FB9EC25F044
:104E20000401434B442BE4D70401030E0C6EFF0E28
:104E30000B6EFF0E0A6E0C2E01D007D00B2E01D088
:104E400003D00A2EFED7FAD7F6D78C0E0B6EFF0EC4
:104E50000A6E0B2E01D003D00A2EFED7FAD7A10E70
:104E60000A6E0A2EFED70000180E436F000E446F24
:104E7000800E4419006E800E005C02E1000E435D5E
:104E800015E3030E06012F6F000E306F43C431F699
:104E900044C432F6030E336F000E346FB9EC25F0C4
:104EA000010E0401435F000E445BE2D712000001D3
:104EB0000D6A096A086A01500010D8B4000C01504C
:104EC00005180A6E0ABE0D1E0B6A05AE6DEF27F0BF
:104ED000041E051E042AD8B4052A01AE75EF27F07A
:104EE000001E011E002AD8B4012A015005100A6EC6
:104EF0000ABE8DEF27F0EEEC2DF00BB0A4EF27F0FB
:104F00000DAE000C001E011E002AD8B4012A081E96
:104F1000091E082AD8B4092A000C05AE9FEF27F015
:104F200001BE9BEF27F00150096E0050086E016A28
:104F3000006A80EF27F0016A006A002A000C011E57
:104F4000001E0B2A7BEF27F0082AD8B4092A045048
:104F5000085CD8A480EF27F00550095CD8A480EF46
:104F600027F0096A086A002AD8B4012A01AE80EF46
:104F700027F00000FF0C12000401476B486B496BDF
:104F80004A6B800E4419006E800E4A19005C02E1E3
:104F90004951435D52E3476B486B800E4819006EE0
:104FA000800E005C02E1080E475D43E2010E06013F
:104FB0002F6F306B97EC1FF0070E06014B6F47C445
:104FC0004CF64D6BA2EC2CF0070E06014B6F070E52
:104FD0004C6F47C44DF6A2EC2CF0070E06014B6F48
:104FE00004014751070806014C6F070E4D6FA2ECF4
:104FF0002CF0070E06014B6F4C6B0401475107085C
:1050000006014D6FA2EC2CF0010E06013D6F000E63
:105010003E6F45C43FF646C440F633EC1AF01652D4
:1050200002E0166A12000401494B4A2B474B482BF9
:10503000B4D70401476B486BA4D712000401466B38
:10504000476B800E4719006E800E005C02E1080E6F
:10505000465D1EE206014B6B58EC2BF043C42FF665
:1050600046C430F60EEC2FF0010E06013D6F000E27
:105070003E6F44C43FF645C440F633EC1AF0165078
:10508000010A02E1166A12000401464B472BD9D7E8
:105090000401070E466F000E476F800E4719006E21
:1050A000800E005C02E1000E465D1FE306014B6BC3
:1050B00058EC2BF043C42FF646C430F60EEC2FF01C
:1050C000010E06013D6F000E3E6F44C43FF645C41D
:1050D00040F633EC1AF0165202E0166A1200010E86
:1050E0000401465F000E475BD8D7120006013D6BF6
:1050F000080E3D5D51E23E6B080E3E5D4BE23F6B9C
:10510000080E3F5D45E2060E046E3DC642F6000EF7
:10511000436F045005E0423742914337FF0FFAD7FF
:1051200006011D0E4225406F020E4321416F030E02
:10513000046E3EC600F0000E016E0450060105E04C
:10514000003600900136FF0FF9D7060100504025C8
:10515000026E01504121036E3F510224E16E000EA8
:105160000320E26E180E4225026E000E4321036EEC
:1051700002500026035001223F510024E96E000E28
:105180000120EA6EEECF00F000C0E6FF3F2BB8D75B
:105190003E2BB2D73D2BACD7120076EC28F006019F
:1051A0004B6B58EC2BF006012F6B080E2F5D4BE27A
:1051B000306B080E305D45E2316B080E315D3FE229
:1051C000060E046E2FC600F0000E016E045006019C
:1051D00005E0003600900136FF0FF9D706011D0EDD
:1051E0000024326F020E0120336F030E046E30C6AE
:1051F00000F0000E016E0450060105E0003600903C
:105200000136FF0FF9D70601325100263351012232
:1052100031510024E96E000E0120EA6EEECF02F05B
:105220000250FF0A09E12FC64BF630C64CF6315149
:1052300007084D6FA2EC2CF00601312BBED7302BA6
:10524000B8D72F2BB2D71200040E04014B6F060102
:105250004B6B58EC2BF00401476B486B800E4819E0
:10526000006E800E005C02E14B51475D43E247C493
:1052700049F448C44AF4800E006E800E4619005C62
:1052800002E14551000809E24B05496F4A6B000EE7
:105290004A5B4751495F48514A5B040149514B25DC
:1052A000006E00C02FF600C030F600C031F64B058E
:1052B000006E4951005E00C032F600C033F600C0F7
:1052C00034F6CAEC14F0010E06013D6F000E3E6F7D
:1052D00043C43FF644C440F633EC1AF006014B6B6E
:1052E00058EC2BF0165202E0166A12000401474BEC
:1052F000482BB4D7120076EC28F006014B6B58EC23
:105300002BF006012F6B080E2F5D4BE2306B080E61
:10531000305D45E2316B080E315D3FE2060E046EF2
:105320002FC600F0000E016E0450060105E00036A5
:1053300000900136FF0FF9D706011D0E0024326FD1
:10534000020E0120336F030E046E30C600F0000E13
:10535000016E0450060105E0003600900136FF0F93
:10536000F9D7060132510026335101223151002470
:10537000E96E000E0120EA6EEECF02F00250FF0A45
:1053800009E12FC64BF6305107084C6F31C64DF678
:10539000A2EC2CF00601312BBED7302BB8D72F2B27
:1053A000B2D7120076EC28F006014B6B58EC2BF0CC
:1053B00006012F6B080E2F5D4BE2306B080E305D3F
:1053C00045E2316B080E315D3FE2060E046E2FC6DA
:1053D00000F0000E016E0450060105E0003600905A
:1053E0000136FF0FF9D706011D0E0024326F020EA1
:1053F0000120336F030E046E30C600F0000E016E04
:105400000450060105E0003600900136FF0FF9D781
:105410000601325100263351012231510024E96E38
:10542000000E0120EA6EEECF02F00250FF0A09E101
:105430002F5107084B6F30C64CF631C64DF6A2EC23
:105440002CF00601312BBED7302BB8D72F2BB2D77B
:10545000120006014B6B58EC2BF0010E06012F6F6A
:10546000490E306F040E316F1C0E326F000E336F19
:10547000DDEC2CF00401476B486B800E4819006E80
:10548000800E4419005C02E14351475D35E2090E8C
:10549000046E000E056E47C400F048C401F057ECDE
:1054A00027F008C000F009C001F000C04BF6070E5D
:1054B00006014C6F040E4D6FA2EC2CF0010E06019C
:1054C0003D6F000E3E6F45C43FF646C440F633ECD8
:1054D0001AF0165202E0166A1200490E06012F6FEA
:1054E000040E306F1C0E316F000E326F41EC20F055
:1054F0000401474B482BC1D712003DC604F03EC6FD
:1055000005F03FC606F040C607F0DB0E006E0F0E3A
:10551000016E490E026E800E036E22EC26F0010E23
:10552000D8B0000E006E00521DE0E40E046ECB0EEB
:10553000056E160E066E810E076E3DC600F03EC665
:1055400001F03FC602F040C603F0A2EC2FF000C00D
:105550004BF601C04CF602C04DF603C04EF674EC9B
:1055600013F012003DC600F03EC601F03FC602F047
:1055700040C603F0DB0E046E0F0E056E490E066E7C
:105580007F0E076E44EC0EF000C04BF601C04CF6E7
:1055900002C04DF603C04EF674EC13F01200200E5C
:1055A00006012F5F326B336B800E3319006E800E55
:1055B000005C02E1080E325D35E232513025E16EC9
:1055C00033513121E26E030E046E2FC600F0000E3F
:1055D000016E026E036E0450060107E00036009073
:1055E000013602360336FF0FF7D70601860E002676
:1055F0005F0E0122000E0222325100263351012299
:10560000000E33BFFF0E022200C0F6FF01C0F7FFFD
:1056100002C0F8FF0900F5CF00F000C0E6FF324BF2
:10562000332BC2D706011200000E06013D5D3FE399
:10563000080E3D5D3CE23E6B080E3E5D38E23F6B7E
:10564000080E3F5D32E2060E046E3EC600F0000E0C
:10565000016E0450060105E0003600900136FF0F90
:10566000F9D70601180E0024406F000E0120416F8B
:10567000030E046E3DC600F0000E016E04500601DC
:1056800005E0003600900136FF0FF9D706014051C2
:105690000026415101223F510024E16E000E0120FD
:1056A000E26EFF0EE66E3F2BCBD73E2BC5D7120026
:1056B00006014C6B080E4C5D3EE24D6B080E4D5DD5
:1056C00038E24E6B080E4E5D32E2060E046E4CC69A
:1056D00000F0000E016E0450060105E00036009057
:1056E0000136FF0FF9D70601180E00244F6F000E88
:1056F0000120506F030E046E4DC600F0000E016EC7
:105700000450060105E0003600900136FF0FF9D77E
:1057100006014F510026505101224E510024E16EE6
:10572000000E0120E26E4BC6E6FF4E2BCBD74D2B71
:10573000C5D74C2BBFD71200000E06013D5D3FE3DD
:10574000080E3D5D3CE23E6B080E3E5D38E23F6B6D
:10575000080E3F5D32E2060E046E3EC600F0000EFB
:10576000016E0450060105E0003600900136FF0F7F
:10577000F9D70601180E0024406F000E0120416F7A
:10578000030E046E3FC600F0000E016E04500601C9
:1057900005E0003600900136FF0FF9D706014051B1
:1057A0000026415101223D510024E16E000E0120EE
:1057B000E26EFF0EE66E3F2BCBD73E2BC5D7120015
:1057C0003DC654F63EC655F63FC656F62CEC2FF0B5
:1057D000005238E0060E046E3DC600F0000E016E69
:1057E0000450060105E0003600900136FF0FF9D79E
:1057F000180E00240601406F000E0120416F030EB9
:10580000046E3EC600F0000E016E0450060105E075
:10581000003600900136FF0FF9D7060140510026EF
:10582000415101223F510024E96E000E0120EA6E31
:10583000EECF02F00250FF0A03E1010E006E1200EB
:10584000006A1200006A120002011C5307E1010EF7
:1058500006014B6F000E4C6F85EC2FF018C200F064
:1058600019C201F01AC202F01BC203F06D0E046EE1
:105870004E0E056EC60E066E410E076EBAEC2DF08A
:10588000390E0024056E300E0120066E000E022037
:10589000076E000E0320086E07C000F008C001F07C
:1058A000000E08BEFF0E036EFF0E00167F0E0116DF
:1058B000000E0216031600C018F201C019F202C051
:1058C0001AF203C01BF2120006013F6B080E3F5D87
:1058D00038E2406B080E405D32E2060E046E3DC6B3
:1058E00000F0000E016E0450060105E00036009045
:1058F0000136FF0FF9D70601180E0024416F000E84
:105900000120426F030E046E3FC600F0000E016ED0
:105910000450060105E0003600900136FF0FF9D76C
:105920000601415100264251012240510024E16EFE
:10593000000E0120E26E3EC6E6FF402BCBD73F2B88
:10594000C5D712004BC654F64CC655F64DC656F692
:105950002CEC2FF0005230E0060E046E4BC600F027
:10596000000E016E0450060105E00036009001367D
:10597000FF0FF9D7180E002406014E6F000E01200C
:105980004F6F030E046E4CC600F0000E016E045003
:10599000060105E0003600900136FF0FF9D7060139
:1059A0004E5100264F5101224D510024E16E000E50
:1059B0000120E26EFF0EE66E12000601366B376BB9
:1059C0002F51010A04E11C0E366F000E376F346B45
:1059D000356B800E3519006E800E3319005C02E1C4
:1059E0003251345D24E234513025E16E355131219C
:1059F000E26E36513425006E37513521016E000EAE
:105A000001BEFF0E026E460E0026760E0122000E2B
:105A1000022200C0F6FF01C0F7FF02C0F8FF090034
:105A2000F5CF00F000C0E6FF344B352BD2D7120083
:105A30004BC654F64CC655F64DC656F62CEC2FF018
:105A400000522FE0060E046E4BC600F0000E016EF1
:105A50000450060105E0003600900136FF0FF9D72B
:105A6000180E002406014E6F000E01204F6F030E2A
:105A7000046E4CC600F0000E016E0450060105E0F5
:105A8000003600900136FF0FF9D706014E5100266F
:105A90004F5101224D510024E16E000E0120E26EB3
:105AA000E66A1200030E046E2FC600F0000E016EAF
:105AB000026E036E045007E0003600900136023695
:105AC0000336FF0FF8D7720E0026760E0122000E65
:105AD0000222060130510026000E0122022200C0DF
