:1000000089EF2DF0FFFFFFFF0CC062F60BC061F619
:100010000AC060F600C05FF6E9CF1EF4EACF1FF415
:10002000E1CF20F4E2CF21F4F29EF2A22BD0160E03
:10003000155C02E2152A02D0010E156E270E0C6E19
:10004000FF0E0B6EFF0E0A6E0C2E01D007D00B2E8A
:1000500001D003D00A2EFED7FAD7F6D73F0E0B6E8B
:10006000FF0E0A6E0B2E01D003D00A2EFED7FAD750
:10007000850E0A6E0A2EFED70000010E166E010EC6
:10008000176EF292F2A403D0D66AD76AF294800E69
:10009000F2121EC4E9FF1FC4EAFF20C4E1FF21C41D
:1000A000E2FF62C60CF061C60BF060C60AF05FC6E4
:1000B00000F011000601456B5BEC2BF027EC2CF0F7
:1000C000080E046E000E056E5AEC27F008C000F012
:1000D00009C001F000C044F401C045F427EC2CF045
:1000E000080E046E000E056E5AEC27F008C000F0F2
:1000F00009C001F000C042F401C043F427EC2CF029
:10010000080E046E000E056E5AEC27F008C000F0D1
:1001100009C001F000C046F401C047F40401506B6F
:10012000516B800E5119006E800E005C02E1080ECA
:10013000505D48E250C400F051C401F0060E046E58
:10014000000E056E7FEC2EF0550E0024E16E040EBD
:100150000120E26E42C4E6FF43C4E6FF50C400F053
:1001600051C401F0060E046E000E056E7FEC2EF0F9
:10017000550E0026040E0122020E0024E16E000E30
:100180000120E26E44C4E6FF45C4E6FF50C400F01F
:1001900051C401F0060E046E000E056E7FEC2EF0C9
:1001A000550E0026040E0122040E0024E16E000EFE
:1001B0000120E26E46C4E6FF47C4E6FF0401504B4F
:1001C000512BAFD70401010E486F000E496F010E8D
:1001D0004A6F000E4B6F010E4C6F000E4D6F3D517C
:1001E0003E11D8B48DEF06F0526B536B546B27EC75
:1001F0002CF0030E046E000E056E5AEC27F008C0BA
:1002000000F009C001F0000E011802E1000E001814
:100210005DE127EC2CF0030E046E000E056E5AEC27
:1002200027F008C000F009C001F000C04EF401C082
:100230004FF4000E011802E1000E001813E127EC44
:100240002CF0030E046E000E056E5AEC27F008C069
:1002500000F009C001F0010E005C0401486F000EBF
:100260000158496F0401000E4F1902E1010E4E19A9
:1002700013E127EC2CF0030E046E000E056E5AEC11
:1002800027F008C000F009C001F0010E005C040175
:100290004A6F000E01584B6F0401000E4F1902E126
:1002A000020E4E1913E127EC2CF0030E046E000E23
:1002B000056E5AEC27F008C000F009C001F0010EED
:1002C000005C04014C6F000E01584D6F0401FF0EDD
:1002D000491902E1FF0E481923E1000E431902E11A
:1002E000000E42191DE1010E526F27EC2CF0030E97
:1002F000046E000E056E5AEC27F008C000F009C02D
:1003000001F0000E011802E1010E001806E1010ED5
:100310000401486F000E496F03D00401486B496B1C
:100320000401FF0E4B1902E1FF0E4A1923E1000EF2
:10033000451902E1000E44191DE1010E536F27EC2F
:100340002CF0030E046E000E056E5AEC27F008C068
:1003500000F009C001F0000E011802E1010E0018C2
:1003600006E1010E04014A6F000E4B6F03D0040139
:100370004A6B4B6B0401FF0E4D1902E1FF0E4C1945
:1003800023E1000E471902E1000E46191DE1010E9E
:10039000546F27EC2CF0030E046E000E056E5AEC21
:1003A00027F008C000F009C001F0000E011802E1BA
:1003B000010E001806E1010E04014C6F000E4D6F96
:1003C00003D004014C6B4D6B0401000E491902E18E
:1003D000010E481923E1000E431902E1070E4219EC
:1003E0001DE1010E526F27EC2CF0030E046E000E7F
:1003F000056E5AEC27F008C000F009C001F0000EAD
:10040000011802E1010E001806E1FF0E0401486F19
:10041000FF0E496F03D00401486B496B0401000EC5
:100420004B1902E1010E4A1923E1000E451902E1C0
:10043000070E44191DE1010E536F27EC2CF0030E3B
:10044000046E000E056E5AEC27F008C000F009C0DB
:1004500001F0000E011802E1010E001806E1FF0E86
:1004600004014A6FFF0E4B6F03D004014A6B4B6BC4
:100470000401000E4D1902E1010E4C1923E1000E9A
:10048000471902E1070E46191DE1010E546F27ECD2
:100490002CF0030E046E000E056E5AEC27F008C017
:1004A00000F009C001F0000E011802E1010E001871
:1004B00006E1FF0E04014C6FFF0E4D6F03D00401E7
:1004C0004C6B4D6B0401010E4011D8B470D15253E6
:1004D000D8B477D0000E4B1902E1000E4A1935E16D
:1004E000000E451902E1070E441905E1FF0E4A6F9F
:1004F000FF0E4B6F2AD00401000E451902E1000ED9
:10050000441905E1010E4A6F000E4B6F1ED0040125
:1005100027EC2CF0020E046E000E056E5AEC27F04C
:1005200008C000F009C001F0000E011802E1000E41
:10053000001806E1FF0E04014A6FFF0E4B6F05D055
:100540000401010E4A6F000E4B6F0401000E4D199D
:1005500002E1000E4C1935E1000E471902E1070EC9
:10056000461905E1FF0E4C6FFF0E4D6F2AD00401B6
:10057000000E471902E1000E461905E1010E4C6F0D
:10058000000E4D6F1ED0040127EC2CF0020E046EFD
:10059000000E056E5AEC27F008C000F009C001F00B
:1005A000000E011802E1000E001806E1FF0E040122
:1005B0004C6FFF0E4D6F05D00401010E4C6F000E05
:1005C0004D6F04015353D8B477D0000E491902E19E
:1005D000000E481935E1000E431902E1070E4219D9
:1005E00005E1FF0E486FFF0E496F2AD00401000E8F
:1005F000431902E1000E421905E1010E486F000E99
:10060000496F1ED0040127EC2CF0020E046E000E80
:10061000056E5AEC27F008C000F009C001F0000E8A
:10062000011802E1000E001806E1FF0E0401486FF8
:10063000FF0E496F05D00401010E486F000E496F8F
:100640000401000E4D1902E1000E4C1935E1000EB7
:10065000471902E1030E461905E1FF0E4C6FFF0E2C
:100660004D6F2AD00401000E471902E1000E461911
:1006700005E1010E4C6F000E4D6F1ED0040127ECFA
:100680002CF0020E046E000E056E5AEC27F008C026
:1006900000F009C001F0000E011802E1000E001880
:1006A00006E1FF0E04014C6FFF0E4D6F05D00401F3
:1006B000010E4C6F000E4D6F04015453D8B477D027
:1006C000000E4B1902E1000E4A1935E1000E4519E2
:1006D00002E1070E441905E1FF0E4A6FFF0E4B6F52
:1006E0002AD00401000E451902E1000E441905E16B
:1006F000010E4A6F000E4B6F1ED0040127EC2CF048
:10070000020E046E000E056E5AEC27F008C000F0D1
:1007100009C001F0000E011802E1000E001806E108
:10072000FF0E04014A6FFF0E4B6F05D00401010E4E
:100730004A6F000E4B6F0401000E491902E1000ED2
:10074000481935E1000E431902E1070E421905E18F
:10075000FF0E486FFF0E496F2AD00401000E4319A7
:1007600002E1000E421905E1010E486F000E496FCB
:100770001ED0040127EC2CF0020E046E000E056E54
:100780005AEC27F008C000F009C001F0000E011873
:1007900002E1000E001806E1FF0E0401486FFF0E93
:1007A000496F05D00401010E486F000E496F040126
:1007B000020E4011D8B4C9D0000E431902E1000E58
:1007C00042190DE1000E451902E1000E441907E13E
:1007D000000E471902E1000E4619D8B48AD0040170
:1007E000000E431902E1000E42190DE1000E4519F9
:1007F00002E1000E441907E1000E471902E1070E5D
:100800004619D8B476D00401000E431902E1000E57
:1008100042190DE1000E451902E1070E441907E1E6
:10082000000E471902E1000E4619D8B462D0040147
:10083000000E431902E1000E42190DE1000E4519A8
:1008400002E1070E441907E1000E471902E1070E05
:100850004619D8B44ED00401000E431902E1070E28
:1008600042190CE1000E451902E1000E441906E19F
:10087000000E471902E1000E46193BE00401000E8C
:10088000431902E1070E42190CE1000E451902E17D
:10089000000E441906E1000E471902E1070E461941
:1008A00028E00401000E431902E1070E42190CE191
:1008B000000E451902E1070E441906E1000E471922
:1008C00002E1000E461915E00401000E431902E191
:1008D000070E42190CE1000E451902E1070E4419FA
:1008E00006E1000E471902E1070E461902E0040175
:1008F0002CD0040127EC2CF0030E046E000E056EC4
:100900005AEC27F008C000F009C001F000C04EF416
:1009100001C04FF4000E011802E1000E001803E1BF
:100920000401486B496B0401000E4F1902E1010EEE
:100930004E1902E14A6B4B6B0401000E4F1902E1A4
:10094000020E4E1902E14C6B4D6B0401000E43196F
:1009500002E1000E42190AE1FF0E491902E1FF0E01
:10096000481904E1010E486F000E496F0401000EA2
:10097000451902E1000E44190AE1FF0E4B1902E18C
:10098000FF0E4A1904E1010E4A6F000E4B6F04017D
:10099000000E471902E1000E46190AE1FF0E4D193B
:1009A00002E1FF0E4C1904E1010E4C6F000E4D6F79
:1009B0000401000E431902E1070E42190AE1000E7C
:1009C000491902E1010E481904E1FF0E486FFF0EBC
:1009D000496F0401000E451902E1070E44190AE1AE
:1009E000000E4B1902E1010E4A1904E1FF0E4A6F95
:1009F000FF0E4B6F0401000E471902E1070E461966
:100A00000AE1000E4D1902E1010E4C1904E1FF0E3E
:100A10004C6FFF0E4D6F040148514227495143234B
:100A20004A5144274B5145234C5146274D514723AA
:100A30004151010A1FE146C445F644C446F642C48A
:100A400047F6A5EC2CF0010E0601376F000E386F4B
:100A50003FC439F6000E3A6F36EC1AF046C445F63C
:100A600044C446F642C447F61BEC2DF0165202E091
:100A7000166A120004014151020A17E146C445F604
:100A800044C446F642C447F6A5EC2CF0010E06011C
:100A9000376F000E386F3FC439F6000E3A6F36ECF0
:100AA0001AF0165202E0166A120004014151030ABC
:100AB000D8A42CD1070E506F000E516F800E511923
:100AC000006E800E005C02E1000E505DD8A097D051
:100AD00050C400F051C401F0060E046E000E056E05
:100AE0007FEC2EF0550E0024E16E040E0120E26E24
:100AF000010E0401505D006E000E5159016E060E8C
:100B0000046E000E056E7FEC2EF0550E0024E96E8B
:100B1000040E0120EA6EEECF00F0EECF01F000C02F
:100B2000E6FF01C0E6FF50C400F051C401F0060E1C
:100B3000046E000E056E7FEC2EF0550E0026040E9E
:100B40000122020E0024E16E000E0120E26E010E71
:100B50000401505D006E000E5159016E060E046EC8
:100B6000000E056E7FEC2EF0550E0026040E0122BD
:100B7000020E0024E96E000E0120EA6EEECF00F0B6
:100B8000EECF01F000C0E6FF01C0E6FF50C400F068
:100B900051C401F0060E046E000E056E7FEC2EF0BF
:100BA000550E0026040E0122040E0024E16E000EF4
:100BB0000120E26E010E0401505D006E000E5159DD
:100BC000016E060E046E000E056E7FEC2EF0550EC3
:100BD0000026040E0122040E0024E96E000E0120FE
:100BE000EA6EEECF00F0EECF01F000C0E6FF01C0EC
:100BF000E6FF010E0401505F000E515B5FD7040158
:100C000042C455F443C456F444C457F445C458F49C
:100C100046C459F447C45AF4506B516B800E5119B5
:100C2000006E800E005C02E1080E505D2AE250C4A6
:100C300000F051C401F0060E046E000E056E7FEC4C
:100C40002EF0550E0026040E0122040E0024E96E3B
:100C5000000E0120EA6EEECF45F6020E0024E96E8A
:100C6000000E0120EA6EEECF46F600C0E9FF01C09B
:100C7000EAFFEECF47F6A5EC2CF00401504B512BC8
:100C8000CDD7010E0601376F000E386F3FC439F61D
:100C9000000E3A6F36EC1AF0165202E0166A120095
:100CA0000401506B516B800E5119006E800E005C78
:100CB00002E1080E505D2AE250C400F051C401F078
:100CC000060E046E000E056E7FEC2EF0550E00260B
:100CD000040E0122040E0024E96E000E0120EA6ECB
:100CE000EECF45F6020E0024E96E000E0120EA6EFA
:100CF000EECF46F600C0E9FF01C0EAFFEECF47F6AF
:100D00001BEC2DF00401504B512BCDD70401010EEB
:100D10003D5F000E3E5BEFEF00F01200480E040155
:100D2000236F450E246F4C0E256F4C0E266F4F0E11
:100D3000276F200E286F570E296F4F0E2A6F520E05
:100D40002B6F4C0E2C6F440E2D6F2E6B480E2F6F99
:100D5000450E306F4C0E316F4C0E326F4F0E336FAD
:100D6000200E346F570E356F4F0E366F520E376FA1
:100D70004C0E386F440E396F3A6B30D288D2010E68
:100D80003B6F040E3B5D0BE23BC43DF4030E3E6F34
:100D9000000E3F6F21EC28F004013B2BF2D7640ECC
:100DA0000601456F000E466FCBEC2EF070D2F40EAC
:100DB00004013D6F010E3E6FE0EC24F068D290EC30
:100DC0001DF0040E04013D6F000E3E6F3F6B406B43
:100DD00027EC29F0040E04013D6F000E3E6F010E5A
:100DE0003F6F000E406F27EC29F0040E04013D6FA9
:100DF000000E3E6F3F6B406B27EC29F0040E0401A0
:100E00003D6F000E3E6F010E3F6F000E406F27ECEE
:100E100029F0040E04013D6F000E3E6F3F6B406BE6
:100E200027EC29F0040E04013D6F000E3E6F010E09
:100E30003F6F000E406F27EC29F029D2320E0401DB
:100E40003D6F000E3E6F020E3F6F010E406F050EAC
:100E5000416F5BEC10F0320E04013D6F000E3E6FEF
:100E6000030E3F6F010E406F050E416F5BEC10F0FB
:100E70000ED2230E04013D6F040E3E6F46EC1EF0B1
:100E800006D2C80E04013D6F000E3E6F040E3F6F88
:100E9000010E406F010E416F5AEC00F0F40E040198
:100EA0003D6F010E3E6F020E3F6F010E406F020E4E
:100EB000416F5AEC00F02C0E04013D6F010E3E6FA5
:100EC000030E3F6F010E406F030E416F5AEC00F0AE
:100ED000DED1020E04013D6F3E6B010E3F6F020E2C
:100EE000406F30EC17F0020E04013D6F010E3E6FB3
:100EF000010E3F6F020E406F30EC17F0030E04013D
:100F00003D6F3E6B010E3F6F020E406F30EC17F0ED
:100F1000030E04013D6F010E3E6F010E3F6F020E86
:100F2000406F30EC17F0B3D1F4EC26F0B0D1020EE4
:100F300004013D6F000E3E6F3F6B406BC80E416F6A
:100F4000000E426F040E436F000E446F0BEC16F060
:100F5000030E04013D6F000E3E6F010E3F6F000E49
:100F6000406FC80E416F000E426F040E436F000EBB
:100F7000446F0BEC16F08BD1E80E04013D6F030EAD
:100F80003E6F030E3F6F000E406F63EC24F07FD185
:100F9000020E04013D6F030E3E6F000E3F6F406B6B
:100FA00048EC09F0070E04013B6F090E3B5D0DE2B2
:100FB000050E3D6F030E3E6F000E3F6F3BC440F4C5
:100FC00048EC09F004013B2BF0D761D1060E3D6FD0
:100FD000000E3E6F2F0E3F6F040E406FF8EC1BF0BB
:100FE00056D1030E04013D6F020E3E6F320E3F6F6D
:100FF000000E406F416B20EC12F0030E04013D6FB8
:10100000020E3E6F320E3F6F000E406F010E416FB9
:1010100020EC12F0020E04013D6F020E3E6F320E04
:101020003F6F000E406F416B20EC12F0020E040186
:101030003D6F020E3E6F320E3F6F000E406F010E8D
:10104000416F20EC12F023D10A0E04013D6F000E17
:101050003E6F1FEC1BF01BD1050E04013D6F000E0F
:101060003E6F0C0E3F6F020E406F000E416FC7ECDB
:101070001CF0050E04013D6F000E3E6F0C0E3F6F1D
:10108000020E406F000E416FC7EC1CF0050E04010C
:101090003D6F000E3E6F0C0E3F6F020E406F000E54
:1010A000416FC7EC1CF0050E04013D6F000E3E6F52
:1010B0000C0E3F6F020E406F000E416FC7EC1CF02C
:1010C000050E04013D6F000E3E6F0C0E3F6F020EC9
:1010D000406F000E416FC7EC1CF0050E04013D6F20
:1010E000000E3E6F0C0E3F6F020E406F000E416F00
:1010F000C7EC1CF0C80E04013D6F000E3E6F040EDD
:101100003F6F000E406FBFEC27F0C80E04013D6F2B
:10111000000E3E6F040E3F6F000E406FD8EC23F0C0
:10112000B6D0B5D0030E04013D6FE0EC0BF0AFD0AC
:10113000400E04013D6F000E3E6F040E3F6F000E27
:10114000406F2CEC2AF0A3D004013C6B0E0E3C5DEA
:101150000FE2050E3D6F000E3E6F3CC43FF4010EE2
:10116000406F000E416FC7EC1CF004013C2BEED722
:101170008ED0C80E3D6F000E3E6F040E3F6F000E06
:10118000406FBFEC27F0C80E04013D6F000E3E6FAC
:10119000040E3F6F000E406FD8EC23F078D0070E9E
:1011A0000601456F070E466F070E476FA5EC2CF042
:1011B000010E0601376F000E386F640E396F000E96
:1011C0003A6F36EC1AF063D0010E04013D6F030E46
:1011D0003E6F000E3F6F21EC28F059D004012251E0
:1011E000000AD8B4CBD52251010AD8B4C8D52251AF
:1011F000020AD8B4DCD52251030AD8B4E0D5225172
:10120000040AD8B41BD62251050AD8B432D62251CA
:10121000060AD8B436D62251070AD8B45AD6225173
:10122000080AD8B481D62251090AD8B480D62251EE
:101230000A0AD8B4A1D622510B0AD8B4A9D6225191
:101240000C0AD8B4C3D622510D0AD8B4CAD622513A
:101250000E0AD8B4F9D622510F0AD8B4FDD62251BD
:10126000100AD8B45ED72251110AD8B45BD72251E4
:10127000120AD8B45DD72251130AD8B465D72251C7
:10128000140AD8B476D72251150A89E09DD71200E6
:10129000000E0401416F010E426F020E436F030EF8
:1012A000446F040E456F050E466F060E476F070E1E
:1012B000486F010E496F010E4A6F020E4B6F030E0D
:1012C0004C6F040E4D6F050E4E6F060E4F6F060EDF
:1012D000506F020E516F020E526F030E536F030ECA
:1012E000546F040E556F040E566F050E576F050EA2
:1012F000586F030E596F030E5A6F030E5B6F030E88
:101300005C6F040E5D6F040E5E6F040E5F6F040E63
:10131000606F0601456B5BEC2BF00401636B3D5184
:10132000635DD8B04CD2666B656B676B646B070E00
:10133000645DD8B085D0665309E1672B6751040A14
:1013400003E1010E666F676BA7EF09F0672B0401DD
:10135000616B080E615D5EE2656B626B080E625D3B
:1013600057E240C429F66151070806012A6F62C49A
:101370002BF655EC2DF0005246E0040166531EE1B9
:10138000615107080601456F080E04016703F3CF9A
:1013900000F0F4CF01F065510026D8B0012A410ECB
:1013A0000024E96E040E0120EA6EEECF46F662C418
:1013B00047F6A5EC2CF00401652B24D061510708F9
:1013C0000601456F080E04016703F3CF00F0F4CF68
:1013D00001F000501F08006E01C001F0E86A0156DC
:1013E0006551005E000E015A410E0024E96E040EA4
:1013F0000120EA6EEECF46F662C447F6A5EC2CF06B
:101400000401652B02D00401652B0401622BA6D7D1
:10141000612B9FD7010E0601376F000E386F3EC457
:1014200039F63FC43AF636EC1AF0165202E0166A64
:1014300012000601456B5BEC2BF00401642B77D79F
:10144000676B666B656B646B070E645DD8B08DD09F
:10145000665309E1672B6751040A03E1010E666FC9
:10146000676B34EF0AF0672B0401616B080E615D56
:1014700066E2656B626B080E625D5FE240C429F64E
:101480006151070806012A6F62C42BF655EC2DF056
:1014900000524EE00401665322E161510708060143
:1014A000456F62C446F6080E04016703F3CF00F0EF
:1014B000F4CF01F065510026D8B0012A410E002476
:1014C000E96E040E0120EA6EEECF00F0005007082E
:1014D0000601476FA5EC2CF00401652B28D0615163
:1014E00007080601456F62C446F6080E040167034B
:1014F000F3CF00F0F4CF01F000501F08006E01C0E0
:1015000001F0E86A01566551005E000E015A410E75
:101510000024E96E040E0120EA6EEECF00F00050C8
:1015200007080601476FA5EC2CF00401652B02D0DB
:101530000401652B0401622B9ED7612B97D7010E06
:101540000601376F000E386F3EC439F63FC43AF6D5
:1015500036EC1AF0165202E0166A12000601456BCC
:101560005BEC2BF00401642B6FD7666B656B676BCC
:10157000646B070E645DD8B088D0665309E1672BB1
:101580006751040A03E1010E666F676BC9EF0AF049
:10159000672B0401616B080E615D61E2656B626B34
:1015A000080E625D5AE240C429F66151070806013F
:1015B0002A6F04016251070806012B6F55EC2DF0CC
:1015C000005246E0040166531EE16151070806011E
:1015D000456F080E04016703F3CF00F0F4CF01F06C
:1015E00065510026D8B0012A410E0024E96E040E90
:1015F0000120EA6EEECF46F662C447F6A5EC2CF069
:101600000401652B24D0615107080601456F080EBF
:1016100004016703F3CF00F0F4CF01F000501F087E
:10162000006E01C001F0E86A01566551005E000ECF
:10163000015A410E0024E96E040E0120EA6EEECF3D
:1016400046F662C447F6A5EC2CF00401652B02D0E7
:101650000401652B0401622BA3D7612B9CD7010EDB
:101660000601376F000E386F3EC439F63FC43AF6B4
:1016700036EC1AF0165202E0166A12000601456BAB
:101680005BEC2BF00401642B74D7676B666B656BA6
:10169000646B070E645DD8B090D0665309E1672B88
:1016A0006751040A03E1010E666F676B59EF0BF097
:1016B000672B0401616B080E615D69E2656B626B0B
:1016C000080E625D62E240C429F661510708060116
:1016D0002A6F04016251070806012B6F55EC2DF0AB
:1016E00000524EE00401665322E1615107080601F1
:1016F000456F62C446F6080E04016703F3CF00F09D
:10170000F4CF01F065510026D8B0012A410E002423
:10171000E96E040E0120EA6EEECF00F000500708DB
:101720000601476FA5EC2CF00401652B28D0615110
:1017300007080601456F62C446F6080E04016703F8
:10174000F3CF00F0F4CF01F000501F08006E01C08D
:1017500001F0E86A01566551005E000E015A410E23
:101760000024E96E040E0120EA6EEECF00F0005076
:1017700007080601476FA5EC2CF00401652B02D089
:101780000401652B0401622B9BD7612B94D7010EBA
:101790000601376F000E386F3EC439F63FC43AF683
:1017A00036EC1AF0165202E0166A12000601456B7A
:1017B0005BEC2BF00401642B6CD7632BB0D51200CB
:1017C000500E0401416F0601456B5BEC2BF00401E8
:1017D0003E6B3D513E5DD8B059D2165202E0166ABA
:1017E000120027EC2CF0040E046E000E056E5AEC6D
:1017F00027F008C000F009C001F0020E0024040127
:10180000426F27EC2CF0040E046E000E056E5AECAD
:1018100027F008C000F009C001F0020E0024040106
:10182000436F010E446F070E406F4451405D3FE32C
:1018300040C445F643C446F642C447F6A5EC2CF036
:101840000601296B2A6B2B6B2C6B22EC2EF0000E01
:10185000046E000E056E200E066E820E076EB8EC4A
:1018600022F000C004F001C005F002C006F003C081
:1018700007F0000E006E000E016E200E026E810E4B
:10188000036EA5EC2FF051EC25F000C039F601C035
:101890003AF6010E0601376F000E386F36EC1AF07B
:1018A0000601456B5BEC2BF004014007BED73F6B94
:1018B00041513F5DD8B0BDD03FC400F0000E016E75
:1018C000060E046E000E056E7FEC2EF0450E002411
:1018D000E16E040E0120E26E42C4E6FF3FC400F058
:1018E000000E016E060E046E000E056E7FEC2EF0EB
:1018F000450E0026040E0122010E0024E16E000EAA
:101900000120E26E43C4E6FF3FC400F0000E016E0A
:10191000060E046E000E056E7FEC2EF0450E0026BE
:10192000040E0122020E0024E16E000E0120E26E80
:1019300044C4E6FF3FC400F0000E016E060E046EC4
:10194000000E056E7FEC2EF0450E0026040E0122DF
:10195000030E00240601256F000E0120266F27ECE0
:101960002CF0030E046E000E056E5AEC27F008C032
:1019700000F009C001F000500108006E25C6E1FF2B
:1019800026C6E2FF00C0E6FF3FC400F0000E016E75
:10199000060E046E000E056E7FEC2EF0450E00263E
:1019A000040E0122040E00240601256F000E012002
:1019B000266F27EC2CF0030E046E000E056E5AEC19
:1019C00027F008C000F009C001F000500108006EC7
:1019D00025C6E1FF26C6E2FF00C0E6FF3FC400F0D7
:1019E000000E016E060E046E000E056E7FEC2EF0EA
:1019F000450E0026040E0122050E00240601256F67
:101A0000000E0120266F27EC2CF0020E046E000E53
:101A1000056E5AEC27F008C000F009C001F0002A5A
:101A200025C6E1FF26C6E2FF00C0E6FF04013F2B0A
:101A30003FD7406B050E405DD8B005D13F6B41519B
:101A40003F5DD8B0EED03FC400F0000E016E060E30
:101A5000046E000E056E7FEC2EF0450E0024066E1F
:101A6000040E0120076E030E0624E96E000E072007
:101A7000EA6EEECF04F006C0E9FF07C0EAFFEECF42
:101A800000F00450002606C0E1FF07C0E2FF00C0DE
:101A9000E6FF3FC400F0000E016E060E046E000E5D
:101AA000056E7FEC2EF0450E0026040E0122010E7D
:101AB0000024066E000E0120076E040E0024E96E5D
:101AC000000E0120EA6EEECF04F006C0E9FF07C069
:101AD000EAFFEECF00F00450002606C0E1FF07C089
:101AE000E2FF00C0E6FF3FC400F0000E016E060EEC
:101AF000046E000E056E7FEC2EF0450E0026040EDF
:101B00000122020E00240601276F000E0120286F1B
:101B1000050E0024E96E000E0120EA6EEECF25F6D8
:101B200027EC2CF0020E046E000E056E5AEC27F026
:101B300008C000F009C001F000500601255D046EE8
:101B400027C6E9FF28C6EAFFEECF00F004500026C2
:101B500027C6E1FF28C6E2FF00C0E6FF3FC400F051
:101B6000000E016E060E046E000E056E7FEC2EF068
:101B7000450E0026040E0122020E0024E96E000E1E
:101B80000120EA6EEECF04F00450000A21E13FC4C8
:101B900000F0000E016E060E046E000E056E7FEC66
:101BA0002EF0450E0026040E0122020E0024046EC3
:101BB000000E0120056E04C0E9FF05C0EAFFEECF6C
:101BC00000F0002A04C0E1FF05C0E2FF00C0E6FF0C
:101BD0003FC400F0000E016E060E046E000E056E8E
:101BE0007FEC2EF0450E0026040E0122020E00248A
:101BF000E96E000E0120EA6EEECF45F6010E0024DC
:101C0000E96E000E0120EA6EEECF46F600C0E9FF55
:101C100001C0EAFFEECF47F6A5EC2CF004013F2B04
:101C20000ED7010E0601376F000E386F040E396FA4
:101C3000000E3A6F36EC1AF00601456B5BEC2BF0A8
:101C40000401402BF7D6100E0C6EFF0E0B6EFF0E2C
:101C50000A6E0C2E01D007D00B2E01D003D00A2E15
:101C6000FED7FAD7F6D74C0E0B6EFF0E0A6E0B2E70
:101C700001D003D00A2EFED7FAD7CD0E0A6E0A2E57
:101C8000FED70000000000003E2BA3D5120000018B
:101C9000025006180E6E086A096A0B6A0350076440
:101CA0003BEF0FF006500A6E068E028E03500B6E4D
:101CB0000750036E000E0B648BEF0EF00B50075EA7
:101CC000D8B42CEF0FF0070E0764FAEF0EF0075EA2
:101CD00000C008F001C000F002C001F0026A074E27
:101CE0002CEF0FF00764CFEF0EF0075E00C008F096
:101CF00001C000F0016A074E2CEF0FF00764ADEF52
:101D00000EF0075E00C008F0006A074E2CEF0FF0DF
:101D1000076494EF0EF00AC002F005C001F004C0A1
:101D200000F0086A58EF10F0030E07649FEF0EF002
:101D3000075E08380F0B086E074E2CEF0FF0D89097
:101D40000832074E2CEF0FF0D8900832074E2CEFD8
:101D50000FF0D89008322CEF0FF0030E0764BEEF9F
:101D60000EF0075E08380F0B086E0038F00B0826DF
:101D700000380F0B006E074E2CEF0FF0D89000329A
:101D80000832074E2CEF0FF0D89000320832074E81
:101D90002CEF0FF0D890003208322CEF0FF0030E2A
:101DA0000764E6EF0EF0075E08380F0B086E003888
:101DB000F00B082600380F0B006E0138F00B0026E0
:101DC00001380F0B016E074E2CEF0FF0D890013247
:101DD00000320832074E2CEF0FF0D890013200325B
:101DE0000832074E2CEF0FF0D89001320032083243
:101DF0002CEF0FF0030E076417EF0FF0075E0838A3
:101E00000F0B086E0038F00B082600380F0B006E21
:101E10000138F00B002601380F0B016E0238F00B71
:101E2000012602380F0B026E074E2CEF0FF0D890F0
:101E30000232013200320832074E2CEF0FF0D890F8
:101E40000232013200320832074E2CEF0FF0D890E8
:101E50000232013200320832096A000E0EAE20EF63
:101E600010F0081E001E011E021E082A0022012278
:101E7000022220EF10F00750D8A441EF0FF058EFE6
:101E800010F0096A02C00AF0028E068E0750035C49
:101E9000076ED8B413EF10F0070E0764E1EF0FF0F0
:101EA000075E0450096E0550046E0650056E066A02
:101EB000074E13EF10F0070E0764B6EF0FF0075E42
:101EC0000450096E0550046E056A074E13EF10F0BA
:101ED000070E076494EF0FF0075E0450096E046A62
:101EE000074E13EF10F0070E07647BEF0FF00AC0E8
:101EF00002F058EF10F0030E076486EF0FF0075E54
:101F000009380F0B096E074E13EF10F0D890093205
:101F1000074E13EF10F0D8900932074E13EF10F070
:101F2000D890093213EF10F0030E0764A5EF0FF0FD
:101F3000075E09380F0B096E0438F00B09260438C8
:101F40000F0B046E074E13EF10F0D89004320932D5
:101F5000074E13EF10F0D89004320932074E13EFFA
:101F600010F0D8900432093213EF10F0030E07641A
:101F7000CDEF0FF0075E09380F0B096E0438F00B38
:101F8000092604380F0B046E0538F00B04260538BB
:101F90000F0B056E074E13EF10F0D8900532043288
:101FA0000932074E13EF10F0D8900532043209328F
:101FB000074E13EF10F0D89005320432093213EFB8
:101FC00010F0030E0764FEEF0FF0075E09380F0BE9
:101FD000096E0438F00B092604380F0B046E05381F
:101FE000F00B042605380F0B056E0638F00B05269E
:101FF00006380F0B066E074E13EF10F0D89006321E
:10200000053204320932074E13EF10F0D890063231
:10201000053204320932074E13EF10F0D890063221
:10202000053204320932086A000E0EAE20EF10F0BD
:10203000091E041E051E061E092A04220522062268
:1020400009500826045000220550012206500222A1
:102050000EBE37EF10F0D8A046EF10F0023201327A
:1020600000320832033E46EF10F052EF10F0D8B0C5
:102070004CEF10F0000E081E001E011E021E082A62
:102080000022012202220A7E4CEF10F0010E0C6E9B
:1020900051EC18F05AEF10F0020E0C6E51EC18F0E3
:1020A0005AEF10F0040E0C6E7BEC2FF05AEF10F08C
:1020B000000E0C6E12000401456B466B0601456B69
:1020C0005BEC2BF004013F51010AD8A48FD0426B86
:1020D000080E425D21E2436B080E435D1BE227ECD4
:1020E0002CF0020E046E000E056E5AEC27F008C0AC
:1020F00000F009C001F0070E0002F3CF00F000C0AD
:1021000045F643C446F642C447F6A5EC2CF004015C
:10211000432BE2D7422BDCD7446B800E006E800E3F
:102120003E19005C02E13D51445D60E227EC2CF079
:10213000080E046E000E056E5AEC27F008C000F081
:1021400009C001F000C042F427EC2CF0080E046E28
:10215000000E056E5AEC27F008C000F009C001F02F
:1021600000C043F40050040146193DE042514519B6
:102170003AE00601376B43C438F642C439F6E3EC63
:102180002BF000520EE0296B43C42AF642C42BF612
:102190003FC42CF640C42DF6000E2E6F47EC19F00C
:1021A0000FD0070E0601296F43C42AF642C42BF64E
:1021B0003FC42CF640C42DF6000E2E6F47EC19F0EC
:1021C000010E0601376F000E386F41C439F6000E5C
:1021D0003A6F36EC1AF0165202E0166A120043C447
:1021E00046F442C445F40401442B97D704013F51FF
:1021F000020AD8A48FD0426B080E425D21E2436BE5
:10220000080E435D1BE227EC2CF0020E046E000E5C
:10221000056E5AEC27F008C000F009C001F0070E67
:102220000002F3CF00F000C046F643C445F642C4B6
:1022300047F6A5EC2CF00401432BE2D7422BDCD768
:10224000446B800E006E800E3E19005C02E13D5131
:10225000445D60E227EC2CF0080E046E000E056E63
:102260005AEC27F008C000F009C001F000C042F4A9
:1022700027EC2CF0080E046E000E056E5AEC27F0C9
:1022800008C000F009C001F000C043F40050040190
:1022900046193DE0425145193AE043C437F606017C
:1022A000386B42C439F6E3EC2BF000520EE043C425
:1022B00029F62A6B42C42BF63FC42CF640C42DF6F7
:1022C000000E2E6F47EC19F00FD043C429F6070E0D
:1022D00006012A6F42C42BF63FC42CF640C42DF6EB
:1022E000000E2E6F47EC19F0010E0601376F000E3D
:1022F000386F41C439F6000E3A6F36EC1AF01652B8
:1023000002E0166A120043C446F442C445F40401D4
:10231000442B97D704013F51030AD8A48FD0426BB6
:10232000080E425D21E2436B080E435D1BE227EC81
:102330002CF0020E046E000E056E5AEC27F008C059
:1023400000F009C001F0070E0002F3CF00F000C05A
:1023500047F643C445F642C446F6A5EC2CF004010A
:10236000432BE2D7422BDCD7446B800E006E800EED
:102370003E19005C02E13D51445D60E227EC2CF027
:10238000080E046E000E056E5AEC27F008C000F02F
:1023900009C001F000C042F427EC2CF0080E046ED6
:1023A000000E056E5AEC27F008C000F009C001F0DD
:1023B00000C043F40050040146193DE04251451964
:1023C0003AE043C437F642C438F60601396BE3EC11
:1023D0002BF000520EE043C429F642C42AF62B6BC0
:1023E0003FC42CF640C42DF6000E2E6F47EC19F0BA
:1023F0000FD043C429F642C42AF6070E06012B6FFC
:102400003FC42CF640C42DF6000E2E6F47EC19F099
:10241000010E0601376F000E386F41C439F6000E09
:102420003A6F36EC1AF0165202E0166A120043C4F4
:1024300046F442C445F40401442B97D7040112002A
:102440000601456B5BEC2BF00401C26BC36B800E85
:10245000C319006E800E005C02E1400EC25D23E2F3
:10246000420EC225E16E040EC321E26EE66A820EC0
:10247000C225C66F040EC321C76F27EC2CF0080ECF
:10248000046E000E056E5AEC27F008C000F009C07B
:1024900001F0C6C4E1FFC7C4E2FF00C0E6FF0401CB
:1024A000C24BC32BD4D70401C26BC36B800EC319BC
:1024B000006E800E005C02E1080EC25D54E2C46B47
:1024C000C56B800EC519006E800E005C02E1400EE7
:1024D000C45D29E2420EC425E96E040EC521EA6EF0
:1024E000EECF04F0820EC425E96E040EC521EA6E1B
:1024F000EECF02F00250045C13E2420EC425026EDD
:10250000040EC521036E02C0E9FF03C0EAFFEECF4F
:1025100000F0002A02C0E1FF03C0E2FF00C0E6FFB6
:10252000C44BC52BCED73DC437F6420E0601386FDB
:10253000040E396F41C43AF6000E3B6F4CEC23F0A9
:10254000010E0601376F000E386F3EC439F6000EDB
:102550003A6F36EC1AF0165202E0166A12000401C5
:10256000C24BC32BA3D70401C26BC36B800EC3192C
:10257000006E800E005C02E1400EC25D0BE2820E36
:10258000C225E16E040EC321E26E070EE66EC24B59
:10259000C32BECD7010E0601376F000E386F3FC416
:1025A00039F640C43AF636EC1AF00401C26BC36B3C
:1025B000800EC319006E800E005C02E1080EC25D41
:1025C000D8B07AD0C46BC56B800EC519006E800E72
:1025D000005C02E1400EC45D4FE2420EC425E96E8C
:1025E000040EC521EA6EEECF04F0820EC425E96E1A
:1025F000040EC521EA6EEECF02F00250045C13E235
:10260000420EC425026E040EC521036E02C0E9FF0E
:1026100003C0EAFFEECF00F0002A02C0E1FF03C0D2
:10262000E2FF00C0E6FF420EC425E96E040EC5219C
:10263000EA6EEECF04F0820EC425E96E040EC521C9
:10264000EA6EEECF02F00450025C13E2420EC425A3
:10265000026E040EC521036E02C0E9FF03C0EAFF4B
:10266000EECF00F0000602C0E1FF03C0E2FF00C0B1
:10267000E6FFC44BC52BA8D73DC437F6420E060172
:10268000386F040E396F41C43AF6000E3B6F4CECC4
:1026900023F0010E0601376F000E386F3EC439F685
:1026A000000E3A6F36EC1AF0165202E0166A12006B
:1026B0000401C24BC32B7CD7010E0601376F000EFD
:1026C000386F010E046E3FC400F040C401F00450A6
:1026D000060105E0003600900136FF0FF9D706012C
:1026E00000C039F601C03AF636EC1AF012000601C5
:1026F0004D6B046A056A066A076A45C600F046C65D
:1027000001F047C602F048C603F025EC26F0010EA2
:10271000D8B0000E006E005204E00601477F010EA3
:102720004D6F45C600F046C601F047C602F048C6E8
:1027300003F0830E046EF90E056E220E066E7C0EFB
:10274000076EB8EC22F000C045F601C046F602C0A4
:1027500047F603C048F600C04EF601C04FF602C06F
:1027600050F603C051F6E4EC20F000C004F001C0C4
:1027700005F002C006F003C007F045C600F046C6EB
:1027800001F047C602F048C603F0A5EC2FF0000E9A
:10279000046E000E056E000E066E810E076EB8EC1C
:1027A00022F000C045F601C046F602C047F603C05D
:1027B00048F600C004F001C005F002C006F003C0F6
:1027C00007F0000E006E000E016E000E026E800E0D
:1027D000036E25EC26F0010ED8B0000E006E0052FC
:1027E00020E0000E046E000E056E000E066E800ED8
:1027F000076E45C600F046C601F047C602F048C65F
:1028000003F0A5EC2FF000C045F601C046F602C06B
:1028100047F603C048F606014D53010ED8A4000E3A
:102820004D6F060145C604F046C605F047C606F0E2
:1028300048C607F0000E006E000E016E000E026E1C
:102840007F0E036E25EC26F0010ED8B0000E006E50
:1028500000521AE045C604F046C605F047C606F029
:1028600048C607F0000E006E000E016E000E026EEC
:10287000800E036EA5EC2FF000C045F601C046F6B1
:1028800002C047F603C048F645C600F046C601F050
:1028900047C602F048C603F045C604F046C605F038
:1028A00047C606F048C607F0B8EC22F000C049F66B
:1028B00001C04AF602C04BF603C04CF600C04EF60B
:1028C00001C04FF602C050F603C051F6680E060173
:1028D000526F5F0E536F000E546F040E556F000E53
:1028E000566F82EC21F045C604F046C605F047C697
:1028F00006F048C607F0B8EC22F000C045F601C06B
:1029000046F602C047F603C048F649C64EF64AC628
:102910004FF64BC650F64CC651F67C0E0601526F70
:102920005F0E536F000E546F030E556F000E566FFF
:1029300082EC21F000C004F001C005F002C006F0F6
:1029400003C007F045C600F046C601F047C602F0D6
:1029500048C603F0F0EC1EF000C045F601C046F694
:1029600002C047F603C048F606014D530DE0000EC5
:102970004519006E000E4619016E800E4719026E51
:10298000000E4819036E120045C600F046C601F05D
:1029900047C602F048C603F012002BC637F62EC613
:1029A00038F62B0E0601396F060E3A6F2E0E3B6F6E
:1029B000060E3C6F47EC2FF02AC637F62DC638F6C8
:1029C0002A0E0601396F060E3A6F2D0E3B6F060E6A
:1029D0003C6F47EC2FF029C637F62CC638F6290E87
:1029E0000601396F060E3A6F2C0E3B6F060E3C6FD8
:1029F00047EC2FF029C62FF606012F512C5DD8A0E9
:102A000009D12AC630F630512D5DD8A001D12BC690
:102A100031F631512E5DD8A0F9D029512F5D0AE34E
:102A20002F512C5D07E330512A1904E131512B1944
:102A3000D8B489D029512F5D0AE32F512C5D07E3CB
:102A400030512D1904E131512B19D8B47CD02951C2
:102A50002F5D0AE32F512C5D07E330512A1904E161
:102A600031512E19D8B46FD029512F5D0AE32F515F
:102A70002C5D07E330512D1904E131512E19D8B4E2
:102A800062D02F5129190AE130512A1907E12B513F
:102A9000315D04E331512E5DD8B055D02F51291945
:102AA00009E130512D1906E12B51315D03E331511C
:102AB0002E5D49E22F512C1909E130512A1906E106
:102AC0002B51315D03E331512E5D3DE22F512C1925
:102AD00009E130512D1906E12B51315D03E33151EC
:102AE0002E5D31E22F51291909E12A51305D06E3AB
:102AF00030512D5D03E331512B1925E02F51291958
:102B000009E12A51305D06E330512D5D03E3315177
:102B10002E1919E02F512C1909E12A51305D06E3D5
:102B200030512D5D03E331512B190DE02F512C193C
:102B300009E12A51305D06E330512D5D03E3315147
:102B40002E1901E031D0060E046E2FC600F0000EE3
:102B5000016E0450060105E0003600900136FF0FBB
:102B6000F9D70601180E0024326F000E0120336FD2
:102B7000030E046E30C600F0000E016E0450060114
:102B800005E0003600900136FF0FF9D706013251FB
:102B900000263351012231510024E16E000E012044
:102BA000E26EFF0EE66E30D00601060E046E2FC6F2
:102BB00000F0000E016E0450060105E000360090A2
:102BC0000136FF0FF9D70601180E0024326F000EF0
:102BD0000120336F030E046E30C600F0000E016E4C
:102BE0000450060105E0003600900136FF0FF9D7CA
:102BF0000601325100263351012231510024E16E89
:102C0000000E0120E26EE66A312B03D7302BFBD693
:102C10002F2BF2D612000401556B566B020E536F28
:102C2000000E546FFF0E401902E1FF0E3F1904E140
:102C3000070E556F000E566F27EC2CF0080E046E31
:102C4000000E056E5AEC27F008C000F009C001F034
:102C500000C045F401C046F427EC2CF0080E046EC9
:102C6000000E056E5AEC27F008C000F009C001F014
:102C700000C047F401C048F40401496B4A6B800E60
:102C80004A19006E800E4219005C02E14151495D13
:102C9000D8B0E5D027EC2CF0030E046E000E056EC4
:102CA0005AEC27F008C000F009C001F0010E005CEA
:102CB00004014F6F000E0158506F27EC2CF0030EEB
:102CC000046E000E056E5AEC27F008C000F009C033
:102CD00001F0010E005C0401516F000E0158526FAB
:102CE0004F514525026E50514621036E800E006EF5
:102CF000800E0318005C02E10250000813E24F51FD
:102D00004525026E50514621036E800E0318006E59
:102D1000800E005C02E1080E025C04E24F51452780
:102D200050514623040151514725026E525148210A
:102D3000036E800E006E800E0318005C02E10250EC
:102D4000000813E251514725026E52514821036E8B
:102D5000800E0318006E800E005C02E1080E025C1B
:102D600004E251514727525148233DC429F63FC43C
:102D70002AF69AEC1FF004014B6B4C6B800E4C1939
:102D8000006E800E5419005C02E153514B5D54E219
:102D90004D6B4E6B800E4E19006E800E5419005C08
:102DA00002E153514D5D44E2000E3E1902E1010E75
:102DB0003D1912E155C445F64D5147250601466FB0
:102DC00004014B5145250601476FA5EC2CF0010E7F
:102DD0000401555F000E565B0401000E3E1902E12E
:102DE000020E3D190DE14D5147250601456F55C4B1
:102DF00046F604014B5145250601476FA5EC2CF022
:102E0000000E04013E1902E1030E3D190DE14D5182
:102E100045250601456F04014B5147250601466FC4
:102E200055C447F6A5EC2CF004014D4B4E2BB2D700
:102E300004014B4B4C2BA2D7010E0601376F000E3D
:102E4000386F43C439F644C43AF636EC1AF01652D9
:102E500002E0166A12000401494B4A2B10D71200F7
:102E6000010E0401C36F010EC46FC56B0601456BF3
:102E70005BEC2BF00401416B400E415D0BE2830ED5
:102E8000E16E040EE26E4151E126D8B0E22AE66A14
:102E9000412BF2D70401C353D8B4F7D04051010AF3
:102EA0003EE1010EC46F0401C45338E0400EC55D1D
:102EB00035E227EC2CF0400E046E000E056E5AEC45
:102EC00027F008C000F009C001F000C041F4830EF3
:102ED000E96E040EEA6E0050E926D8B0EA2AEECF79
:102EE00002F00250000A18E10401C52B830E026EA5
:102EF000040E036E41510226D8B0032A02C0E9FF36
:102F000003C0EAFFEECF00F0002A02C0E1FF03C0D9
:102F1000E2FF00C0E6FFC46B0401C5D71DD0040169
:102F20004051020A19E1400EC55D16E2830E026EA1
:102F3000040E036EC5510226D8B0032A02C0E9FF71
:102F400003C0EAFFEECF00F0002A02C0E1FF03C099
:102F5000E2FF00C0E6FFC52B0401426B416B400E4F
:102F6000415D3FE2830EE96E040EEA6E4151E926AF
:102F7000D8B0EA2AEECF02F00250000822E2830E17
:102F8000E96E040EEA6E4151E926D8B0EA2AEECF86
:102F900002F0070E025C15E2830E026E040E036E51
:102FA00041510226D8B0032A02C0E9FF03C0EAFF5C
:102FB000EECF00F0002A02C0E1FF03C0E2FF00C034
:102FC000E6FF830EE96E040EEA6E4151E926D8B0A1
:102FD000EA2AEECF02F00250070AD8B4422B412B66
:102FE000BED74251400AD8B4C36B416B400E415D1D
:102FF00031E23E51000A15E1430EE16E040EE26E2D
:103000004151E126D8B0E22A830EE96E040EEA6E41
:103010004151E926D8B0EA2AEECF00F000C0E6FF21
:1030200017D0430EE16E040EE26E4151E126D8B096
:10303000E22A830EE96E040EEA6E4151E926D8B009
:10304000EA2AEECF00F000500708006E00C0E6FF4D
:10305000412BCCD7010E0601376F000E386F3FC4ED
:1030600039F6000E3A6F36EC1AF0165202E0166A84
:1030700012003DC437F6430E0601386F040E396F57
:103080003A6B3B6B4CEC23F005D7010E0601376F12
:10309000000E386F500E396F000E3A6F36EC1AF092
:1030A000120000010CB094EF18F00CA23CEF19F0E4
:1030B0000E6A000E0264ABEF18F0F00E0214D8A4F2
:1030C00076EF18F0023A01380F0B02260138F00BA8
:1030D000016E00380F0B01260038F00B006E083827
:1030E0000F0B00260838F00B086E0E84D89002BE35
:1030F0008FEF18F008360036013602360E2A02BE6F
:103100008FEF18F008360036013602360E2A02BE5E
:103110008FEF18F008360036013602360E2A0E50B0
:10312000036430EF19F0035E0BBC08AE36EF19F004
:10313000D880800E08640030000E00220122022296
:10314000D8A036EF19F0023201320032034A3CEFC8
:1031500019F036EF19F001C002F000C001F008C00C
:1031600000F0086A000E0E860264E2EF18F0F00E1E
:103170000214D8A4CAEF18F0023A01380F0B022645
:103180000138F00B016E00380F0B01260038F00BF0
:10319000006E0E84D89002BE8FEF18F00036013614
:1031A00002360E2A02BE8FEF18F0003601360236C4
:1031B0000E2A02BE8FEF18F00036013602360E2AB4
:1031C0008FEF18F001C002F000C001F0006A000E9D
:1031D0000E960E8802640FEF19F0F00E0214D8A4B8
:1031E000FAEF18F0023A01380F0B02260138F00B03
:1031F000016E0E84D89002BE8FEF18F001360236B1
:103200000E2A02BE8FEF18F0013602360E2A02BED9
:103210008FEF18F0013602360E2A8FEF18F001C03A
:1032200002F0016A000E0E86026442EF19F0F00E01
:103230000214D8A41EEF19F0023A0E84D89002BEF0
:103240008FEF18F002360E2A02BE8FEF18F002360A
:103250000E2A02BE8FEF18F002360E2A8FEF18F0FA
:10326000010E0C6E6DEC2FF046EF19F0020E0C6E95
:10327000AAEC2FF046EF19F0040E0C6E7BEC2FF049
:1032800046EF19F0080E0C6E9DEC2FF012000601AF
:103290002C51010A4BE12F6B306B800E3019006E00
:1032A000800E005C02E1080E2F5D40E22951070A02
:1032B00015E12F510708006E30C601F0E86A01568B
:1032C00000C031F601C032F60050010F456F2AC62A
:1032D00046F62BC647F61BEC2DF00DD02FC631F667
:1032E00030C632F606012F05456F2AC646F62BC6B4
:1032F00047F61BEC2DF031C645F62AC646F62BC61E
:1033000047F6A5EC2CF0010E0601376F000E386F62
:103310002DC639F62EC63AF636EC1AF0165202E0F1
:10332000166A120006012F4B302BB7D706012C511D
:10333000020A4BE12F6B306B800E3019006E800E4D
:10334000005C02E1080E2F5D40E22A51070A15E1F8
:103350002F510708006E30C601F0E86A015600C020
:1033600031F601C032F629C645F60050010F466F0E
:103370002BC647F61BEC2DF00DD02FC631F630C60C
:1033800032F629C645F606012F05466F2BC647F6CD
:103390001BEC2DF029C645F631C646F62BC647F67E
:1033A000A5EC2CF0010E0601376F000E386F2DC60C
:1033B00039F62EC63AF636EC1AF0165202E0166AC4
:1033C000120006012F4B302BB7D706012C51030AF0
:1033D0004BE12F6B306B800E3019006E800E005C5D
:1033E00002E1080E2F5D40E22B51070A15E12F5133
:1033F0000708006E30C601F0E86A015600C031F6D9
:1034000001C032F629C645F62AC646F60050010F1D
:10341000476F1BEC2DF00DD02FC631F630C632F6BB
:1034200029C645F62AC646F606012F05476F1BEC4E
:103430002DF029C645F62AC646F631C647F6A5EC54
:103440002CF0010E0601376F000E386F2DC639F6CD
:103450002EC63AF636EC1AF0165202E0166A120040
:1034600006012F4B302BB7D7060112000601416B26
:10347000426B800E4219006E800E3A19005C02E128
:103480003951415DD8B0DAD03F6B406B800E4019A6
:10349000006E800E005C02E1080E3F5DD8B0CAD01D
:1034A000070E3D6F000E3E6F800E3E19006E800EBF
:1034B000005C02E1000E3D5D50E3070E3B6F000E25
:1034C0003C6F800E3C19006E800E005C02E1000E25
:1034D0003B5D3DE3060E046E3FC600F040C601F0C2
:1034E0000450060105E0003600900136FF0FF9D7C1
:1034F0000601180E0024436F000E0120446F030ED6
:10350000046E3DC600F03EC601F00450060105E021
:10351000003600900136FF0FF9D70601435100260F
:10352000445101223B510024E96E3C510120EA6ED6
:10353000EECF00F0000E00B0020E8018020B801AD1
:1035400080808090010E3B5F000E3C5BBAD7060185
:10355000010E3D5F000E3E5BA7D7060180842AD096
:103560000601800E816E826A57D00601400E816E80
:10357000826A52D00601200E816E826A4DD0060109
:10358000100E816E826A48D00601080E816E826A32
:1035900043D00601040E816E826A3ED00601020EFF
:1035A000816E826A39D00601816A040E826E34D03F
:1035B000060132D00601000E401902E1000E3F194B
:1035C000CFE0000E401902E1010E3F19CEE0000EDF
:1035D000401902E1020E3F19CDE0000E401902E150
:1035E000030E3F19CCE0000E401902E1040E3F1912
:1035F000CBE0000E401902E1050E3F19CAE0000EB3
:10360000401902E1060E3F19C9E0000E401902E11F
:10361000070E3F19C8E0CCD7060137C645F638C6B5
:1036200046F6CBEC2EF08094816A826A06013F4B0D
:10363000402B2CD70601414B422B1BD71200040113
:10364000BF6BC06B800EC019006E800E005C02E183
:10365000400EBF5D24E23F0EBF25E16E040EC02187
:10366000E26E040EE66E7F0EBF25C56F040EC0210C
:10367000C66F27EC2CF0080E046E000E056E5AEC97
:1036800027F008C000F009C001F0C5C4E1FFC6C4BE
:10369000E2FF00C0E6FF0401BF4BC02BD3D70401FB
:1036A000BF6BC06B800EC019006E800E005C02E123
:1036B000080EBF5D20E23F0E0601296F040E2A6F3F
:1036C0007F0E2B6F040E2C6F010E2D6F8DEC26F0EC
:1036D000010E0601376F000E386F040E396F000EB1
:1036E0003A6F36EC1AF0165202E0166A1200040124
:1036F000BF4BC02BD7D70401BF6BC06B800EC01966
:10370000006E800E3E19005C02E13D51BF5D6FE22C
:10371000C36BC46B800EC419006E800E005C02E1A6
:10372000080EC35D1CE23F0E0601296F040E2A6FCE
:103730007F0E2B6F040E2C6F010E2D6F8DEC26F07B
:10374000010E0601376F000E386F040E396F000E40
:103750003A6F36EC1AF00401C34BC42BDBD7010ED1
:103760000601376F000E386F640E396F000E3A6F26
:1037700036EC1AF0165202E0166A12000401C16B10
:10378000C26B800EC219006E800E005C02E1200E3A
:10379000C15D29E227EC2CF0400E046E000E056E90
:1037A0005AEC27F008C000F009C001F07F0E002499
:1037B0000401C56F040E0120C66F27EC2CF0080E23
:1037C000046E000E056E5AEC27F008C000F009C028
:1037D00001F0C5C4E1FFC6C4E2FF00C0E6FF04017A
:1037E000C14BC22BCED70401BF4BC02B87D71200D1
:1037F0000601456B5BEC2BF00601296B470E2A6F27
:10380000040E2B6F1C0E2C6F000E2D6FE0EC2CF0B5
:103810003FC4E9FF40C4EAFFEECF00F00052D8B445
:103820008BD03FC4E9FF40C4EAFFEECF29F6630E18
:1038300006012A6F040E2B6FD2EC2AF004013F4BD5
:10384000402B456B466B800E4619006E800E005C67
:1038500002E1080E455D55E2630E4525E96E040E52
:103860004621EA6EEECF6BF4416B426B800E42193B
:10387000006E800E005C02E1080E415D24E241C44E
:1038800001F06BC400F00150040104E00032009E1E
:10389000FF0FFAD7010E0016005209E041C445F6A9
:1038A000070E0601466F476BA5EC2CF008D041C40B
:1038B00045F6070E0601466F476B1BEC2DF0040121
:1038C000414B422BD3D7470E0601296F040E2A6FB6
:1038D0001C0E2B6F000E2C6F44EC20F0010E060125
:1038E000376F000E386F3DC439F63EC43AF636ECF9
:1038F0001AF0165202E0166A12000401454B462BDC
:10390000A2D7470E0601296F040E2A6F1C0E2B6FDB
:10391000000E2C6F44EC20F0010E0601376F000EF4
:10392000386F3DC439F63EC43AF636EC1AF01652FA
:1039300002E0166A12006CD70401436B446B800EE0
:103940004419006E800E005C02E11C0E435D1EE215
:10395000470E0601296F040E2A6F1C0E2B6F000EF6
:103960002C6F44EC20F0010E0601376F000E386F0B
:103970003DC439F63EC43AF636EC1AF0165202E06F
:10398000166A12000401434B442BD9D712000601DA
:10399000456B5BEC2BF00601296B480E2A6F040E79
:1039A0002B6F1C0E2C6F000E2D6FE0EC2CF0040121
:1039B000446B456B800E4519006E800E4119005C0A
:1039C00002E14051445DD8B080D0466B476B800E19
:1039D0004719006E800E005C02E1080E465D47E26A
:1039E000426B436B800E4319006E800E005C02E157
:1039F000080E425D1EE23FC429F642C42AF646C4C0
:103A00002BF655EC2DF0005208E042C445F6070EA7
:103A1000466F476BA5EC2CF008D042C445F6070E64
:103A20000601466F476B1BEC2DF00401424B432B04
:103A3000D9D7010E0601376F000E386F3DC439F635
:103A40003EC43AF636EC1AF0165202E0166A12003C
:103A5000480E0601296F040E2A6F1C0E2B6F000EF4
:103A60002C6F44EC20F00401464B472BB0D70401E7
:103A7000466B476B800E4719006E800E005C02E1BA
:103A8000140E465D1EE2010E0601376F000E386F00
:103A90003DC439F63EC43AF636EC1AF0165202E04E
:103AA000166A1200480E0601296F040E2A6F1C0EBA
:103AB0002B6F000E2C6F44EC20F00401464B472B7B
:103AC000D9D70401444B452B75D70401466B476B8E
:103AD000800E4719006E800E005C02E10A0E465D02
:103AE0001EE2010E0601376F000E386F3DC439F635
:103AF0003EC43AF636EC1AF0165202E0166A12008C
:103B0000480E0601296F040E2A6F1C0E2B6F000E43
:103B10002C6F44EC20F00401464B472BD9D7120000
:103B2000010E0401456F000E466F040E4115476FEC
:103B300042C448F4000E4817020E496F000E4A6F47
:103B4000416B426B800E4219006E800E005C02E1F8
:103B5000080E415DD8B099D03D6B3E6B800E3E198A
:103B6000006E800E4619005C02E145513D5DD8B003
:103B700088D03F6B406B800E4019006E800E005C59
:103B800002E1100E3F5DD8B078D03F510708436F77
:103B900040C444F4E86A4457800E006E800E401919
:103BA000005C02E13F51070806E2080E3F5D436FEB
:103BB000000E4059446F0601456B5BEC2BF0010E83
:103BC0000601376F000E386F010E396F000E3A6F25
:103BD00036EC1AF0165202E0166A12000601296B42
:103BE0002A6B2B6B43C42CF643C42DF643C42EF62C
:103BF000CDEC14F0800E006E800E04014819005CBC
:103C000002E14751000802E2D5EC29F0000E040160
:103C1000421902E1050E411906E0000E421902E1C7
:103C2000070E411903E104017EEC29F0000E0401A6
:103C3000421902E1060E411906E0000E421902E1A6
:103C4000070E411903E10401D0EC28F0010E060132
:103C5000376F000E386F49C439F64AC43AF636EC6D
:103C60001AF00601456B5BEC2BF0165202E0166A67
:103C7000120004013F4B402B7ED704013D4B3E2BED
:103C80006DD70401414B422B5DD712000601456BF5
:103C90005BEC2BF03DC4E9FF3EC4EAFFEECF00F041
:103CA0000052D8B49CD03DC4E9FF3EC4EAFFEECF39
:103CB00029F6450E06012A6F040E2B6FD2EC2AF06E
:103CC00004013D4B3E2B070E416F000E426F800EEC
:103CD0004219006E800E005C02E1000E415D38E387
:103CE000070E3F6F000E406F800E4019006E800E71
:103CF000005C02E1000E3F5D25E3450E4125E96EC3
:103D0000040E4221EA6EEECF02F03FC401F002C081
:103D100000F00150040104E00032009EFF0FFAD7CA
:103D2000010E0016005208E03FC445F641C446F6B5
:103D30000601476BA5EC2CF0010E04013F5F000E5D
:103D4000405BD2D70401010E415F000E425BBFD73A
:103D50000401436B446B800E4419006E800E005CBE
:103D600002E1080E435D1AE2010E0601376F000EF4
:103D7000386F030E396F000E3A6F36EC1AF0165298
:103D800002E0166A1200030E0601296F010E2A6F67
:103D90009AEC1FF00401434B442BDDD70401030EC2
:103DA0000C6EFF0E0B6EFF0E0A6E0C2E01D007D0AC
:103DB0000B2E01D003D00A2EFED7FAD7F6D78C0EE1
:103DC0000B6EFF0E0A6E0B2E01D003D00A2EFED70B
:103DD000FAD7A10E0A6E0A2EFED700005BD712009A
:103DE0000001086A096A0750D8B487EF1FF0035032
:103DF000D8B48CEF1FF0025006180A6E028E068EA1
:103E00000E6A02C008F001C00CF000C00DF00450B2
:103E10000D5E0550D8A0053C0C5E0650D8A0063CAF
:103E2000085E086A0C6A0D6AD8A01EEF1FF0D890D1
:103E30000232013200320832010E0E6E0750035E6C
:103E4000D8A02BEF1FF07E0E0E240326D8B091EFE2
:103E50001FF031EF1FF07E0E0E240326D8A096EF40
:103E60001FF0180E0B6E0D360C3608360036013674
:103E700002360E360450005E0550D8A0053C015EA7
:103E80000650D8A0063C025E06340E120EA04CEF7F
:103E90001FF00D8057EF1FF0045000260550D8B0DA
:103EA000053C01260650D8B0062802260D900B2EA0
:103EB00033EF1FF07DEF1FF0D89000360136023649
:103EC0000E360450005E0550D8A0053C015E065039
:103ED000D8A0063C025E06340E10010B0D26D8B0A9
:103EE0000C2AD8B4082AD8A47DEF1FF008320C326F
:103EF0000D32032AD8B491EF1FF00AAE089E085085
:103F0000026E0C50016E0D50006E99EF1FF0010E05
:103F1000AFEC2FF099EF1FF0020E9DEC2FF099EF10
:103F20001FF0040E7BEC2FF099EF1FF0080E6DECE4
:103F30002FF0120006012951010A35E12B6B080E02
:103F40002B5D31E22C6B080E2C5D2BE22D6B080EE5
:103F50002D5D25E22A51000A06E12BC62EF62B51D3
:103F6000010F2F6F07D02B510708006E00C02EF6EF
:103F700000042F6F2FC637F62CC638F62DC639F63B
:103F8000E3EC2BF02EC637F62CC638F62DC639F6E4
:103F900000C03AF6EEEC2EF006012D2BD8D72C2BD4
:103FA000D2D72B2BCCD72951020A35E12B6B080E27
:103FB0002B5D31E22C6B080E2C5D2BE22D6B080E75
:103FC0002D5D25E22A51000A08E12C510708006EF8
:103FD00000C02EF600042F6F05D02CC62EF62C51F3
:103FE000010F2F6F2BC637F62FC638F62DC639F6C0
:103FF000E3EC2BF02BC637F62EC638F62DC639F675
:1040000000C03AF6EEEC2EF006012D2BD8D72C2B63
:10401000D2D72B2BCCD72951030A35E12B6B080EB5
:104020002B5D31E22C6B080E2C5D2BE22D6B080E04
:104030002D5D25E22A51000A06E12DC62EF62D51EE
:10404000010F2F6F07D02D510708006E00C02EF60C
:1040500000042F6F2BC637F62CC638F62FC639F65C
:10406000E3EC2BF02BC637F62CC638F62EC639F605
:1040700000C03AF6EEEC2EF006012D2BD8D72C2BF3
:10408000D2D72B2BCCD71200010E06012B5D2D6F42
:10409000000E2C592E6F800E2E19006E800E005CC3
:1040A00002E1010E2D5D60E32F6B306B800E301945
:1040B000006E800E005C02E1080E2F5D4FE22FC6FD
:1040C00037F6010E2D5D006E000E2E59016E005068
:1040D0002925E96E01502A21EA6EEECF03F003C0D4
:1040E00000F00032009E0032009E0032009E00323E
:1040F000009E0F0E001600500708386F03C000F036
:104100000F0E001600500708396FE3EC2BF02FC696
:1041100037F62D512925E96E2E512A21EA6EEECF70
:1041200004F004C002F00232029E0232029E023209
:10413000029E0232029E0F0E021602500708386FCE
:104140000F0E0414026E02500708396F00C03AF6D1
:10415000EEEC2EF006012F4B302BA8D70601010EF6
:104160002D5F000E2E5B97D706012F6B306B800EF4
:104170003019006E800E005C02E1080E2F5D23E214
:104180002FC645F629C6E9FF2AC6EAFFEECF03F09F
:1041900003C000F00032009E0032009E0032009EFC
:1041A0000032009E0F0E001600500708466F0F0EDB
:1041B0000314006E00500708476F1BEC2DF006013A
:1041C0002F4B302BD4D7120051C600F0016A026A7F
:1041D000036AFF0E0016000E011600C056F601C05D
:1041E00057F67F0E005C046E000E0158056E04C089
:1041F00056F605C057F6800E0518006E800E005C5E
:1042000002E1000E045C23E2046A056A066A076A9A
:104210004EC600F04FC601F050C602F051C603F082
:1042200025EC26F0010ED8B0000E006E005209E019
:10423000000E006E000E016E800E026E7F0E036E89
:1042400012000001006A016A026A036A1200000E8D
:10425000006E06015751005C02E15651180809E250
:104260004EC600F04FC601F050C602F051C603F032
:10427000120006014EC600F04FC601F050C602F013
:1042800051C603F01EEC22F0A8EC2EF000C052F64E
:1042900001C053F602C054F603C055F600C004F046
:1042A00001C005F002C006F003C007F04EC600F0E2
:1042B0004FC601F050C602F051C603F025EC26F0BF
:1042C000010ED8B0000E006E005213E0000E046E16
:1042D000000E056E000E066E7F0E076E52C600F0D1
:1042E00053C601F054C602F055C603F0A5EC2FF0FA
:1042F000120052C600F053C601F054C602F055C673
:1043000003F01200020E046E55C600F056C601F00E
:10431000000E060156BFFF0E026E036E045006012A
:1043200007E000360090013602360336FF0FF7D75C
:10433000060152510026535101225451022200C05D
:10434000F6FF01C0F7FF02C0F8FF0900F5CF57F6EE
:104350000900F5CF58F60900F5CF59F60900F5CF59
:104360005AF606015551561160E04EC600F04FC690
:1043700001F050C602F051C603F057C604F058C60B
:1043800005F059C606F05AC607F0B8EC22F000C096
:104390005BF601C05CF602C05DF603C05EF6010E7E
:1043A0000601555F000E565B020E046E55C600F006
:1043B00056C601F0000E56BFFF0E026E036E04508B
:1043C000060107E000360090013602360336FF0F83
:1043D000F7D70601525100265351012254510222AF
:1043E00000C0F6FF01C0F7FF02C0F8FF0900F5CFDB
:1043F00000F00900F5CF01F00900F5CF02F0090047
:10440000F5CF03F05BC604F05CC605F05DC606F0B0
:104410005EC607F047EC0EF000C057F601C058F634
:1044200002C059F603C05AF69CD757C600F058C6CA
:1044300001F059C602F05AC603F0120000010B6ADF
:104440000C6A086A0350D8B4A3EF22F002C00AF045
:10445000028E9E0E035E03AE93EF22F0036C080EF5
:10446000035CD8A060EF22F0036E083600C008F0AD
:1044700001C000F002C001F0026A080E035CD8A07F
:1044800060EF22F0036E083600C008F001C000F0B3
:10449000016A080E035CD8A060EF22F0036E0836B4
:1044A00000C008F0006A080E035CD8A060EF22F09C
:1044B000036E0836086A0350D8A4D8906CEF22F037
:1044C0000350D8B46CEF22F0D8900232013200329F
:1044D0000832032E64EF22F00BBC08A07DEF22F01F
:1044E000D8A07DEF22F0082AD8B4002AD8B4012A37
:1044F000D8B4022A02BEA7EF22F00AAEA3EF22F040
:10450000021E011E001E081E082AD8B4002AD8B4B4
:10451000012AD8B4022AA3EF22F0026A016A006AD3
:10452000086AA3EF22F00B800BAEAEEF22F0026A16
:104530000AAEAEEF22F0026E016E006E086E0A3611
:104540000232AEEF22F00C6A000EAFEF22F0010E45
:104550000C6E000E5EEC2FF0AFEF22F0FF0E02505B
:10456000036E0150026E0050016E0850006E120082
:104570000001086A096A000E076203643EEF23F037
:10458000025006180A6E075003267E0ED8A0CFEF01
:1045900022F0035ED8B043EF23F0D3EF22F0035EA6
:1045A000D8A048EF23F0028E068E02C00EF001C0A4
:1045B0000BF000C00DF000500402F4CF0CF00150DD
:1045C0000502F4CF00F0F3CF08F00402F3500C26FC
:1045D000F4500822000E00220D500502F3500C2664
:1045E000F4500822000E002202500402F350082664
:1045F000F450002202500502016A000E0122F3501D
:104600000026F45001220D500602F3500826F45003
:104610000022026A000E012202220B500602F35011
:104620000026F4500122000E02220E500602F35022
:104630000126F450022202BE26EF23F0083600368F
:10464000013602360306D8B448EF23F039EF23F0E1
:10465000D880800E08640030000E00220122022261
:10466000D8A039EF23F0023201320032034A43EF7F
:1046700023F00AAE029E000E4BEF23F0010E9DECDC
:104680002FF04BEF23F0020E7BEC2FF04BEF23F0DB
:10469000040E6DEC2FF012000601456B5BEC2BF065
:1046A00006013C6B3D6B800E3D19006E800E005C78
:1046B00002E1080E3C5DD8B07AD03E6B3F6B800EB5
:1046C0003F19006E800E005C02E1080E3E5D6BE259
:1046D0003A513B1122E0030E046E3CC600F03DC689
:1046E00001F00450060105E0003600900136FF0F8E
:1046F000F9D706013E5100263F51012200503825CE
:10470000E96E01503921EA6EEECF00F00050070843
:10471000406F416B000E415B1FD0030E046E3CC620
:1047200000F03DC601F00450060105E0003600909F
:104730000136FF0FF9D706013E5100263F510122F5
:1047400000503825E96E01503921EA6EEECF40F66F
:10475000000E416F000E416F3751010A08E140C65B
:1047600045F63EC646F63CC647F6A5EC2CF00601DB
:104770003751020A08E13EC645F640C646F63CC639
:1047800047F6A5EC2CF006013751030A08E13CC6B8
:1047900045F63EC646F640C647F6A5EC2CF00601A7
:1047A0003E4B3F2B8CD706013C4B3D2B7CD7120058
:1047B0000401416B426B436B446B800E3E19006EEB
:1047C000800E4419005C02E143513D5DD8A07AD0CF
:1047D000416B426B800E4219006E800E005C02E15C
:1047E000080E415D6BE2010E0601296F2A6B9AECFF
:1047F0001FF0070E0601456F41C446F6476BA5EC56
:104800002CF0070E0601456F070E466F41C447F6B0
:10481000A5EC2CF0070E0601456F04014151070875
:104820000601466F070E476FA5EC2CF0070E060138
:10483000456F466B0401415107080601476FA5EC1F
:104840002CF0070E0601456F0401415107080601CF
:10485000466F476BA5EC2CF0070E0601456F070E5F
:10486000466F0401415107080601476FA5EC2CF083
:10487000070E0601456F41C446F6070E476FA5ECCB
:104880002CF0070E0601456F466B41C447F6A5ECB8
:104890002CF0010E0601376F000E386F3FC439F659
:1048A00040C43AF636EC1AF0165202E0166A1200CC
:1048B0000401434B442B414B422B8CD70401416BE9
:1048C000426B7BD71200040E0401416F000E426F51
:1048D0000601456B5BEC2BF00601296B450E2A6F38
:1048E000040E2B6F1C0E2C6F000E2D6FE0EC2CF0C5
:1048F0000401436B446B800E4419006E800E3E1918
:10490000005C02E13D51435D5AE227EC2CF0030EBE
:10491000046E000E056E5AEC27F008C000F009C0C6
:1049200001F0010E005E000E015A00500401412505
:10493000026E01504221036E02C041F403C042F4F2
:10494000800E006E800E0318005C02E10250070822
:1049500004E2070E416F000E426F0401800E4219FF
:10496000006E800E005C02E1000E415D02E2416BD0
:10497000426B450E0601296F040E2A6F1C0E2B6F29
:10498000000E2C6F44EC20F041C445F6070E0601E2
:10499000466F476BA5EC2CF0010E0601376F000E39
:1049A000386F3FC439F640C43AF636EC1AF0165266
:1049B00002E0166A12000401434B442B9CD71200FC
:1049C0000601456B5BEC2BF00401416B426B800EE2
:1049D0004219006E800E3E19005C02E13D51415DBE
:1049E0005FE227EC2CF0040E046E000E056E5AEC0C
:1049F00027F008C000F009C001F000C045F401C074
:104A000046F404013F6B406B800E4019006E800E2F
:104A10004619005C02E145513F5D28E227EC2CF08D
:104A2000080E046E000E056E5AEC27F008C000F068
:104A300009C001F000C043F401C044F427EC2CF09D
:104A4000080E046E000E056E5AEC27F008C000F048
:104A500009C001F00601456B00C046F643C447F6A5
:104A6000A5EC2CF004013F4B402BCED7010E0601E4
:104A7000376F000E386F0A0E396F000E3A6F36EC42
:104A80001AF0010E0601296F010E2A6F9AEC1FF031
:104A9000165202E0166A12000401414B422B97D7CE
:104AA000120000010B6A0350D8B498EF25F00250B1
:104AB0000A6E028E8E0E035E03AE9CEF25F0036C31
:104AC000080E035CD8A077EF25F0036E013602C014
:104AD00001F0026A080E035CD8A077EF25F0036EA0
:104AE0000136016A0350D8A4D89081EF25F0035015
:104AF000D8B481EF25F0D89002320132032E7BEF3B
:104B000025F00BBC01A08EEF25F0D8A08EEF25F08C
:104B1000012AD8B4022A02BEABEF25F00AAEB1EFEB
:104B200025F0021E011E012AD8B4022AB1EF25F099
:104B3000026A016AB1EF25F00B800BAEB5EF25F0EC
:104B4000026A0AAEB5EF25F0FF0E026E016E0A365C
:104B50000232B5EF25F0010E0C6E5EEC2FF0B7EFD0
:104B600025F0000E0C6EB7EF25F0FF0E0C6E015015
:104B7000006E0250016E12000601456B5BEC2BF0DB
:104B800006012F6B306B800E3019006E800E2A19D3
:104B9000005C02E129512F5D57E2316B326B800ED0
:104BA0002C19006E800E3219005C02E131512B5D30
:104BB00038E327EC2CF0080E046E000E056E5AEC5C
:104BC00027F008C000F009C001F000C035F601C0B0
:104BD00036F627EC2CF0080E046E000E056E5AEC2B
:104BE00027F008C000F009C001F000C033F601C092
:104BF00034F627EC2CF0080E046E000E056E5AEC0D
:104C000027F008C000F009C001F000C045F633C627
:104C100046F635C647F6A5EC2CF00601314B322B93
:104C2000BED70601010E376F000E386F2DC639F65C
:104C30002EC63AF636EC1AF00601456B5BEC2BF00B
:104C400006012F4B302B9FD7120000010A6A035038
:104C5000D8A40A800750D8A40A820A50D8B489EF91
:104C600026F0030AD8B442EF26F00AB03DEF26F052
:104C700006AE87EF26F085EF26F002AE85EF26F030
:104C800087EF26F00250800B0A6E029E0650800BC2
:104C9000069E0A18D8B453EF26F00A50D8B485EF10
:104CA00026F087EF26F00750035CD8B45DEF26F0BE
:104CB000D8A079EF26F07FEF26F00650025CD8B43A
:104CC00067EF26F0D8A079EF26F07FEF26F00550A9
:104CD000015CD8B471EF26F0D8A079EF26F07FEF11
:104CE00026F00450005CD8B489EF26F0D8B07FEFEE
:104CF00026F00A52D8B487EF26F085EF26F00A5244
:104D0000D8B485EF26F087EF26F0D8801200D8902F
:104D10001200D880D8841200120006012E6B2F6B6F
:104D2000800E2F19006E800E005C02E1400E2E5D99
:104D30004FE22E512925E96E2F512A21EA6EEECF3E
:104D400003F02E512B25E96E2F512C21EA6EEECF68
:104D500001F00150035C13E22E512925016E2F5101
:104D60002A21026E01C0E9FF02C0EAFFEECF00F087
:104D7000002A01C0E1FF02C0E2FF00C0E6FF2E51A1
:104D80002925E96E2F512A21EA6EEECF03F02E512C
:104D90002B25E96E2F512C21EA6EEECF01F0035046
:104DA000015C13E22E512925016E2F512A21026E3A
:104DB00001C0E9FF02C0EAFFEECF00F0000601C02B
:104DC000E1FF02C0E2FF00C0E6FF2E4B2F2BA8D769
:104DD0000601010E376F29C638F62AC639F63A6B36
:104DE0003B6B4CEC23F01200165202E0166A1200E4
:104DF00004013D6B3E6B800E3E19006E800E005C20
:104E000002E1180E3D5D13E2030E0601296F000E4C
:104E10002A6F3DC42BF63EC42CF6030E2D6F000EF8
:104E20002E6FBCEC25F004013D4B3E2BE4D7040172
:104E3000030E0C6EFF0E0B6EFF0E0A6E0C2E01D0D1
:104E400007D00B2E01D003D00A2EFED7FAD7F6D703
:104E50008C0E0B6EFF0E0A6E0B2E01D003D00A2EA5
:104E6000FED7FAD7A10E0A6E0A2EFED70000180E42
:104E70003D6F000E3E6F800E3E19006E800E005C8E
:104E800002E1000E3D5D15E3030E0601296F000EE1
:104E90002A6F3DC42BF63EC42CF6030E2D6F000E78
:104EA0002E6FBCEC25F0010E04013D5F000E3E5B51
:104EB000E2D7120000010D6A096A086A0150001069
:104EC000D8B4000C015005180A6E0ABE0D1E0B6AFC
:104ED00005AE70EF27F0041E051E042AD8B4052A7B
:104EE00001AE78EF27F0001E011E002AD8B4012A77
:104EF000015005100A6E0ABE90EF27F0F1EC2DF07C
:104F00000BB0A7EF27F00DAE000C001E011E002A0B
:104F1000D8B4012A081E091E082AD8B4092A000C90
:104F200005AEA2EF27F001BE9EEF27F00150096EFB
:104F30000050086E016A006A83EF27F0016A006A78
:104F4000002A000C011E001E0B2A7EEF27F0082A03
:104F5000D8B4092A0450085CD8A483EF27F0055080
:104F6000095CD8A483EF27F0096A086A002AD8B43C
:104F7000012A01AE83EF27F00000FF0C12000401AC
:104F8000416B426B436B446B800E3E19006E800E8A
:104F90004419005C02E143513D5D52E3416B426BB9
:104FA000800E4219006E800E005C02E1080E415D29
:104FB00043E2010E0601296F2A6B9AEC1FF0070EDF
:104FC0000601456F41C446F6476BA5EC2CF0070E71
:104FD0000601456F070E466F41C447F6A5EC2CF05D
:104FE000070E0601456F0401415107080601466F8F
:104FF000070E476FA5EC2CF0070E0601456F466BB8
:105000000401415107080601476FA5EC2CF0010E81
:105010000601376F000E386F3FC439F640C43AF6C8
:1050200036EC1AF0165202E0166A12000401434BE5
:10503000442B414B422BB4D70401416B426BA4D7A4
:1050400012000401406B416B800E4119006E800E0E
:10505000005C02E1080E405D1EE20601456B5BEC60
:105060002BF03DC429F640C42AF611EC2FF0010EB6
:105070000601376F000E386F3EC439F63FC43AF66A
:1050800036EC1AF01650010A02E1166A1200040109
:10509000404B412BD9D70401070E406F000E416FE2
:1050A000800E4119006E800E005C02E1000E405D32
:1050B0001FE30601456B5BEC2BF03DC429F640C4B1
:1050C0002AF611EC2FF0010E0601376F000E386F33
:1050D0003EC439F63FC43AF636EC1AF0165202E0F6
:1050E000166A1200010E0401405F000E415BD8D722
:1050F00012000601376B080E375D51E2386B080E5F
:10510000385D4BE2396B080E395D45E2060E046EE0
:1051100037C63CF6000E3D6F045005E03C373C912D
:105120003D37FF0FFAD706011D0E3C253A6F020EE0
:105130003D213B6F030E046E38C600F0000E016E79
:105140000450060105E0003600900136FF0FF9D744
:10515000060100503A25026E01503B21036E395181
:105160000224E16E000E0320E26E180E3C25026E52
:10517000000E3D21036E02500026035001223951DA
:105180000024E96E000E0120EA6EEECF00F000C0B0
:10519000E6FF392BB8D7382BB2D7372BACD7120054
:1051A00079EC28F00601456B5BEC2BF00601296BCE
:1051B000080E295D4BE22A6B080E2A5D45E22B6B37
:1051C000080E2B5D3FE2060E046E29C600F0000EAD
:1051D000016E0450060105E0003600900136FF0F15
:1051E000F9D706011D0E00242C6F020E01202D6F31
:1051F000030E046E2AC600F0000E016E0450060174
:1052000005E0003600900136FF0FF9D706012C515A
:1052100000262D5101222B510024E96E000E0120A1
:10522000EA6EEECF02F00250FF0A09E129C645F608
:105230002AC646F62B510708476FA5EC2CF006014D
:105240002B2BBED72A2BB8D7292BB2D71200040E8E
:105250000401456F0601456B5BEC2BF00401416BCB
:10526000426B800E4219006E800E005C02E14551D7
:10527000415D43E241C443F442C444F4800E006EF5
:10528000800E4019005C02E13F51000809E245052B
:10529000436F446B000E445B4151435F4251445B9A
:1052A000040143514525006E00C029F600C02AF6CE
:1052B00000C02BF64505006E4351005E00C02CF681
:1052C00000C02DF600C02EF6CDEC14F0010E060144
:1052D000376F000E386F3DC439F63EC43AF636ECEF
:1052E0001AF00601456B5BEC2BF0165202E0166AD1
:1052F00012000401414B422BB4D7120079EC28F084
:105300000601456B5BEC2BF00601296B080E295D4D
:105310004BE22A6B080E2A5D45E22B6B080E2B5DD3
:105320003FE2060E046E29C600F0000E016E045026
:10533000060105E0003600900136FF0FF9D706019F
:105340001D0E00242C6F020E01202D6F030E046E23
:105350002AC600F0000E016E0450060105E000367A
:1053600000900136FF0FF9D706012C5100262D5170
:1053700001222B510024E96E000E0120EA6EEECFCF
:1053800002F00250FF0A09E129C645F62A51070832
:10539000466F2BC647F6A5EC2CF006012B2BBED78B
:1053A0002A2BB8D7292BB2D7120079EC28F00601A6
:1053B000456B5BEC2BF00601296B080E295D4BE277
:1053C0002A6B080E2A5D45E22B6B080E2B5D3FE22F
:1053D000060E046E29C600F0000E016E0450060190
:1053E00005E0003600900136FF0FF9D706011D0ECB
:1053F00000242C6F020E01202D6F030E046E2AC6AE
:1054000000F0000E016E0450060105E00036009029
:105410000136FF0FF9D706012C5100262D5101222C
:105420002B510024E96E000E0120EA6EEECF02F04F
:105430000250FF0A09E129510708456F2AC646F6BE
:105440002BC647F6A5EC2CF006012B2BBED72A2B3A
:10545000B8D7292BB2D712000601456B5BEC2BF0B5
:10546000010E0601296F430E2A6F040E2B6F1C0ECE
:105470002C6F000E2D6FE0EC2CF00401416B426BA1
:10548000800E4219006E800E3E19005C02E13D5113
:10549000415D35E2090E046E000E056E41C400F058
:1054A00042C401F05AEC27F008C000F009C001F036
:1054B00000C045F6070E0601466F040E476FA5ECC7
:1054C0002CF0010E0601376F000E386F3FC439F61D
:1054D00040C43AF636EC1AF0165202E0166A120090
:1054E000430E0601296F040E2A6F1C0E2B6F000E4F
:1054F0002C6F44EC20F00401414B422BC1D7120029
:1055000037C604F038C605F039C606F03AC607F0CB
:10551000DB0E006E0F0E016E490E026E800E036EE2
:1055200025EC26F0010ED8B0000E006E00521DE0F2
:10553000E40E046ECB0E056E160E066E810E076E1F
:1055400037C600F038C601F039C602F03AC603F09B
:10555000A5EC2FF000C045F601C046F602C047F6A4
:1055600003C048F677EC13F0120037C600F038C6D7
:1055700001F039C602F03AC603F0DB0E046E0F0EDE
:10558000056E490E066E7F0E076E47EC0EF000C0EA
:1055900045F601C046F602C047F603C048F677EC70
:1055A00013F01200200E0601295F2C6B2D6B800E6C
:1055B0002D19006E800E005C02E1080E2C5D35E2B4
:1055C0002C512A25E16E2D512B21E26E030E046E23
:1055D00029C600F0000E016E026E036E0450060133
:1055E00007E000360090013602360336FF0FF7D78A
:1055F00006018C0E00265F0E0122000E02222C51A5
:1056000000262D510122000E2DBFFF0E022200C0E8
:10561000F6FF01C0F7FF02C0F8FF0900F5CF00F068
:1056200000C0E6FF2C4B2D2BC2D706011200000E46
:105630000601375D3FE3080E375D3CE2386B080E2C
:10564000385D38E2396B080E395D32E2060E046EC1
:1056500038C600F0000E016E0450060105E0003669
:1056600000900136FF0FF9D70601180E00243A6F9B
:10567000000E01203B6F030E046E37C600F0000ED3
:10568000016E0450060105E0003600900136FF0F60
:10569000F9D706013A5100263B5101223951002425
:1056A000E16E000E0120E26EFF0EE66E392BCBD7C5
:1056B000382BC5D712000601466B080E465D3EE248
:1056C000476B080E475D38E2486B080E485D32E2D2
:1056D000060E046E46C600F0000E016E0450060170
:1056E00005E0003600900136FF0FF9D70601180ECD
:1056F0000024496F000E01204A6F030E046E47C656
:1057000000F0000E016E0450060105E00036009026
:105710000136FF0FF9D70601495100264A510122EF
:1057200048510024E16E000E0120E26E45C6E6FFFE
:10573000482BCBD7472BC5D7462BBFD71200000E1F
:105740000601375D3FE3080E375D3CE2386B080E1B
:10575000385D38E2396B080E395D32E2060E046EB0
:1057600038C600F0000E016E0450060105E0003658
:1057700000900136FF0FF9D70601180E00243A6F8A
:10578000000E01203B6F030E046E39C600F0000EC0
:10579000016E0450060105E0003600900136FF0F4F
:1057A000F9D706013A5100263B5101223751002416
:1057B000E16E000E0120E26EFF0EE66E392BCBD7B4
:1057C000382BC5D7120037C64EF638C64FF639C645
:1057D00050F62FEC2FF0005238E0060E046E37C65C
:1057E00000F0000E016E0450060105E00036009046
:1057F0000136FF0FF9D7180E002406013A6F000E8C
:1058000001203B6F030E046E38C600F0000E016EDF
:105810000450060105E0003600900136FF0FF9D76D
:1058200006013A5100263B51012239510024E96E0C
:10583000000E0120EA6EEECF02F00250FF0A03E1F3
:10584000010E006E1200006A1200006A12000201CE
:105850001C5307E1010E0601456F000E466F88ECF0
:105860002FF018C200F019C201F01AC202F01BC2D8
:1058700003F06D0E046E4E0E056EC60E066E410EE2
:10588000076EBDEC2DF0390E0024056E300E0120A0
:10589000066E000E0220076E000E0320086E07C081
:1058A00000F008C001F0000E08BEFF0E036EFF0EF0
:1058B00000167F0E0116000E0216031600C018F225
:1058C00001C019F202C01AF203C01BF21200060155
:1058D000396B080E395D38E23A6B080E3A5D32E2F8
:1058E000060E046E37C600F0000E016E045006016D
:1058F00005E0003600900136FF0FF9D70601180EBB
:1059000000243B6F000E01203C6F030E046E39C66D
:1059100000F0000E016E0450060105E00036009014
:105920000136FF0FF9D706013B5100263C510122F9
:105930003A510024E16E000E0120E26E38C6E6FF07
:105940003A2BCBD7392BC5D7120045C64EF646C6E3
:105950004FF647C650F62FEC2FF0005230E0060EFF
:10596000046E45C600F0000E016E0450060105E00D
:10597000003600900136FF0FF9D7180E00240601FB
:10598000486F000E0120496F030E046E46C600F0FA
:10599000000E016E0450060105E00036009001364D
:1059A000FF0FF9D7060148510026495101224751FE
:1059B0000024E16E000E0120E26EFF0EE66E120082
:1059C0000601306B316B2951010A04E11C0E306F66
:1059D000000E316F2E6B2F6B800E2F19006E800E14
:1059E0002D19005C02E12C512E5D24E22E512A2556
:1059F000E16E2F512B21E26E30512E25006E315178
:105A00002F21016E000E01BEFF0E026E4C0E00260D
:105A1000760E0122000E022200C0F6FF01C0F7FF41
:105A200002C0F8FF0900F5CF00F000C0E6FF2E4BE2
:105A30002F2BD2D7120045C64EF646C64FF647C6A4
:105A400050F62FEC2FF000522FE0060E046E45C6E4
:105A500000F0000E016E0450060105E000360090D3
:105A60000136FF0FF9D7180E00240601486F000E0B
:105A70000120496F030E046E46C600F0000E016E51
:105A80000450060105E0003600900136FF0FF9D7FB
:105A90000601485100264951012247510024E16E78
:105AA000000E0120E26EE66A1200030E046E29C6A3
:105AB00000F0000E016E026E036E045007E0003627
:105AC0000090013602360336FF0FF8D7780E002615
:105AD000760E0122000E022206012A510026000E37
